:020000040800F2
:10000000D80C0020CD000008E1220008DD1F000808
:1000100000000000000000000000000000000000E0
:10002000000000000000000000000000CD250008D6
:1000300000000000000000000D250008CF2500088A
:10004000DF00000800000000DF000008DF000008FB
:10005000DF000008DF000008DF000008DF00000804
:100060000000000065040008DF000008DF00000851
:10007000DD010008DF000008DF00000800000000CC
:10008000DF000008DF000008DF000008DF000008D4
:10009000DF000008DF000008DF000008DF000008C4
:1000A000DF000008DF000008DF000008DF000008B4
:1000B000DF000008DF0000080348854600F07CF8F8
:1000C00000480047D12E0008D80C00200448804783
:1000D00004480047FEE7FEE7FEE7FEE7FEE7FEE72F
:1000E0006D260008B900000830B50B460146002017
:1000F0002022012409E00D46D5409D4205D31D462E
:100100009540491B2546954040191546521E002D25
:10011000F1DC30BD70B500242546002801DA012449
:100120004042002901DA01254942FFF7DDFFAC42D8
:1001300000D04042002C00D0494270BD0549064A1B
:1001400008685043054A8018086040087047014914
:1001500008607047300000206D4EC6413930000005
:1001600003460B439B0703D009E008C9121F08C0D0
:10017000042AFAD203E00B780370401C491C521E7B
:10018000F9D27047D2B201E00270401C491EFBD286
:1001900070470022F6E710B513460A460446194692
:1001A000FFF7F0FF204610BD421C0178401C0029DB
:1001B000FBD1801A70470000064C0125064E05E071
:1001C000E36807CC2B430C3C98471034B442F7D378
:1001D000FFF776FFBC5C0008DC5C000810B5024845
:1001E00000F0F0FC10BD00004801002010B5846A4A
:1001F000A16D502211420DD1A06D01214902084389
:10020000A065206801F052FF00281BD0A07E0028C6
:1002100007D017E0A16DC90624D5204600F0D0FC18
:1002200010BD2068016809070CD501F03BFF0146AD
:10023000012000290AD0A16D20221143A165E16DA2
:100240000143E165204600F0B9FC10BD21684A6811
:100250000C239A434A60A16DFF220132914301436E
:10026000A165EFE7216D496B884710BD10B5806A25
:10027000816D402211438165C16D04221143C16526
:1002800000F09EFC10BD10B5806A00F098FC10BD17
:10029000F8B50446006881688907CD0F01F0FEFEBD
:1002A000002826D0002D24D1206881680522114025
:1002B00010250126012910D181680F4A1140891C9F
:1002C000816021680320086001F0BCF807460CE05B
:1002D00001F0B8F8C01B022807D9A06D2843A0651B
:1002E000E06D3043E0650120F8BD20688068C007FC
:1002F000EED10020F8BD0000E8FFFF7FF8B504460E
:1003000000200090206801F0C9FE002840D120683C
:100310008168204A1026114000292BD18168D543DD
:100320002940491C81601C48006807218905084054
:1003300000020AD51A4819490068FFF7D5FE401C8B
:1003400000E0401E00900028FBD1607E01281FD0F5
:1003500001F078F8074616E001F0A0FE002804D16D
:10036000206881682940491C816001F06BF8C01B3E
:10037000022808D9A06D3043A065E06D0121084333
:10038000E0650846F8BD20680168C943C907E3D1A4
:100390000020F8BD1700008008270140400D030031
:1003A0002C00002070B500F033F80024074D00F059
:1003B0000FF82855641CE4B2052CF8D303482978BB
:1003C000801E41706978017070BD00002600002019
:1003D000F8B5002401260D4F254676026006040E6E
:1003E0003146384601F022F80028F9D0282000F0E4
:1003F00091F83146384601F019F8012800D104433C
:100400006D1CEDB2082DE9D32046F8BD0004005064
:1004100070B50125124C6D0200222946204601F0DC
:100420000AF8142000F042FF01222946204601F07C
:1004300002F83C2000F06EF82946204600F0F6FF56
:1004400000280BD12946204600F0F0FF0028F9D003
:100450002946204600F0EAFF0128F9D070BD0000CF
:100460000004005010B5024800F02CFE10BD000042
:10047000AC01002010B50446006C094980088000DA
:1004800040186064207814210838FFF72DFE0449D5
:100490008031A164C106C90E01208840E06410BD0E
:1004A000000802400179084B8906890E8A00D2189B
:1004B0000265054A4432491E42658A07920F0121AE
:1004C0009140816570470000FC080240F0B5846CE3
:1004D000C56C6560046D002C02D0446D856D65604F
:1004E0000B4C6568066C1C273E400127B7403D4316
:1004F0006560046863608368102B036803D09960AB
:100500000068C260F0BD9A600068C160F0BD000084
:1005100000000240002804D01921491EFDD1401ED0
:10052000FAD1704710B500F0ADF8CC2000F0D2F849
:100530004E2000F0CFF8192000F0CCF81A2000F07F
:10054000C9F87F2000F0C6F800F09CF8CC2000F03D
:10055000C1F8482000F0BEF800F094F8CC2000F07C
:10056000B9F8B82000F0B6F810BD000030B502466A
:1005700000200146054B064C04E05D5C4540605D93
:10058000491CC9B29142F8D330BD0000C806002012
:100590007C5B000810B5FFF7C5FF00F073F814206E
:1005A00000F084FECC2000F095F8442000F092F892
:1005B000142000F07BFE00F065F8142000F076FEB9
:1005C000CC2000F087F8BE2000F084F8092000F06D
:1005D00049F800F057F80920FFF7C8FF00280DD1AF
:1005E000084841780278090211430A0906494A700D
:1005F000007806220007000F5043887000F042F890
:1006000010BD0000C80600202100002010B5FFF733
:1006100089FF10BDF8B5002405263607254680273A
:10062000640800220121304600F005FF0220FFF798
:1006300071FF01221146304600F0FDFE0A20FFF74F
:1006400069FF0121304600F0F1FE012800D13C4352
:100650003C20FFF75FFF6D1CEDB2082DE0D3204674
:10066000F8BD000070B505460024054E04E0FFF714
:10067000D1FF3055641CE4B2AC42F8D370BD000029
:10068000C806002010B50524012224071146204683
:1006900000F0D1FE0220FFF73DFF0022012120469D
:1006A00000F0C9FEFF20F530FFF734FF01221146AC
:1006B000204600F0C0FE0121204600F0B7FE0449AC
:1006C000002802D00020087010BD0120FBE70000C8
:1006D0002100002070B50024052506462D070022C4
:1006E0000121284600F0A7FE3046E040C00701D0B7
:1006F000022000E01E20FFF70DFF012211462846D0
:1007000000F099FE3C20FFF705FF641CE4B2082CC2
:10071000E5D370BD72B6FEE710B50379642B0AD23B
:100720000468DB00E15201790368C900891C5A5250
:100730000179491C017110BDFFB568460088C7B238
:10074000801DC6B268464088C5B2801DC4B26846E6
:100750000089C3B2801DC2B268464089C1B2801D03
:10076000C0B29E4203D3974201D8012200E000228A
:100770008C4206D3854204D8002A02D0012004B05E
:10078000F0BD0020FBE71FB50446811D082202A82A
:10079000FFF7E6FC082268462168FFF7E1FC68469F
:1007A0000FC8FFF7C9FF00280AD0E07BC822401C11
:1007B000E07311462046FFF7AFFF204600F001F836
:1007C0001FBD10B5044600F03DFEFFF7C0FCFFF76B
:1007D000B5FC6921FFF79EFC0F31E180FFF7AEFC0D
:1007E0002821FFF797FC1431218110BD10B5044674
:1007F0000079C00002F096FB206000202071A073F9
:10080000E073607110BD0000F0B50446006885B06B
:100810000188818020684188C18060792168430017
:1008200032480A88C356D2180A80637921685B006F
:10083000181801234A88C356D01848802068002120
:10084000415E002901DC802102E0802901DB0021DA
:10085000018020680221415E0C2901DC402102E078
:10086000402901DB0D214180012113E0C8002268ED
:10087000031D155AD5522368821C9D5A861D9D530F
:100880002368051F5D5B1D52801E2368491C185A92
:100890009852C9B220798842E8D800250006000E97
:1008A0001BD0022714E0052D12D32668E80031186A
:1008B000082202A8FFF754FC082231466846FFF7D9
:1008C0004FFC6E460FCEFFF737FF002800D0A7730E
:1008D0006D1C2079EDB2A842E5D82046FFF753FF02
:1008E000502000F0E3FC05B0F0BD0000190000202E
:1008F000F8B500260546044640350096287D0128B7
:100900000ED0012028752046FFF7C2FC0246206861
:100910008168C907C90F05D0A06D1021084330E0D8
:100920000220F8BDA16DFF2301339943022319432F
:10093000A165C168C3688907890F9B089B00C360D4
:10094000206883680127FF073B4383600F4B2068C3
:100950000DE0009F7F1C00979F4208D3A06D0221ED
:10096000884310210843A0652E750120F8BD8768D3
:10097000FF0FEED1C3680B43C360A06D80088000F9
:10098000401CA0652E751046F8BD000000F2020064
:100990007047704770477047F8B500270646044611
:1009A00040360097307D0D4601280FD0012030756C
:1009B000206801F077FB00280AD0A06D20210843B1
:1009C000A0650127002030753846F8BD0220F8BD2B
:1009D000686802287ED001222169D207914202D0A4
:1009E000121D914206D120682968826A4903490B89
:1009F0000A436EE0C206D20E0F20216E9040814362
:100A00002868430302D0C3074BD102E04000C00E68
:100A100048E0830701D5012044E0430701D50220C7
:100A200040E0030701D503203CE0C30601D50420C4
:100A300038E0830601D5052034E0430601D50620C1
:100A400030E0030601D507202CE0C30501D50820BE
:100A500028E0830501D5092024E0430501D50A20BB
:100A600020E0030501D50B201CE0C30401D50C20B8
:100A700018E0830401D50D2014E0430401D50E20B5
:100A800010E0030401D50F200CE0C30301D51020B2
:100A900008E0830301D5112004E0400301D51220B2
:100AA00000E000209040014321666968E2698808FF
:100AB000401C904210D820682B68826A9C46C90668
:100AC000C90E0F238B409A4363469B001B0F8B403C
:100AD0001A4300E03BE082622168AB6828684A69FB
:100AE0000002824318404001400902434A612868DD
:100AF000002800DB66E72B4A116807239B05194095
:100B0000294B984214D10B0212D4C0020143104663
:100B100001F0D4FA264825490068FFF7E5FA0C21D0
:100B20004843401C00E0401E00900028FBD149E7EC
:100B3000204B984203D1CB0101D4800205E01E4B2B
:100B40009842D7D14802D5D45802014325E001216B
:100B50002069C907884202D0091D884206D1206851
:100B60002968826A4903490B8A43826228680028FF
:100B7000C0DA0C4A116807239B0519400A4B9842BA
:100B800001D1C00208E00B4B984201D1800203E082
:100B9000094B9842AED140028143104601F08EFAD3
:100BA00010E7000008270140001000B0400D0300CE
:100BB0002C000020004000B8002000B470477047AF
:100BC00070470000F8B50446006806684568B0073D
:100BD0000FD5A8070DD5A06DC00604D4A06D0121C6
:100BE000C9020843A0652046FFF7D3FE2168022012
:100BF0000860474F700701D5680703D4300728D530
:100C0000280726D5A06DC00604D4A06D0121490295
:100C10000843A065206801F049FA002813D0A07E9F
:100C2000002810D12068016809070CD501F03AFAB4
:100C300001460120002960D0A16D20221143A16549
:100C4000E16D0143E1652046FFF7B8FF21680C2004
:100C5000086030060CD528060AD5A06D01210904CC
:100C60000843A065204600F07BF9216880200860D9
:100C7000F0050BD5E80509D5A06D0121490408430D
:100C8000A0652046FFF786FE20680760B0050DD5F9
:100C9000A8050BD5A06D012189040843A065204655
:100CA000FFF779FE0120216840020860F00618D5A0
:100CB000E80616D5206B002804D02068C06880079D
:100CC000800F0BD0A06D012189020843A065E06D63
:100CD00002210843E0652046FFF772FF21681020DB
:100CE0000860B00408D5A80406D52046FFF750FEDA
:100CF0000120216840030860F8BD21684A680C2380
:100D00009A434A60A16DB9430143A1659BE7000086
:100D100000010000FEB5002704463E4601970097FB
:100D2000002803D0A06D002802D008E00120FEBDFD
:100D3000204600F017F90020E0655421085520688E
:100D40008168C900C90F11D181687C4A1140012214
:100D50001207114381607B4879490068FFF7C4F9A5
:100D6000400000E0401E00900028FBD12068816810
:100D7000C900C90F08D1A16D10221143A165E16D11
:100D800001221143E165174601F08CF9A16DC906F6
:100D900001D4002804D0A06D10210843A065CAE04A
:100DA000A06DFF210131884302210843A06520681E
:100DB00001F074F901462046203000292FD1226825
:100DC000D16818239943A3681943D160626C216CE0
:100DD000636811439B0FA26C9B071A431143E26C9B
:100DE00011430E43017F012900D10E43226811698E
:100DF000554B1940314311610322616892079142BA
:100E00000DD05A0791420AD05200914207D04F4D5F
:100E1000AB680F229204934311400B43AB60217ED9
:100E20008D03617EC9030D43A17E4A031543226BE6
:100E3000002A01D0012212031543E26815432269FA
:100E4000002A02DA5200520801E00122520515433D
:100E5000027B007852001543019A1543012809D1FD
:100E6000002955D0A06D20210843A065E06D012127
:100E70000843E065606A002806D0FF22C1321040B6
:100E8000A16A28430D4605432168C868304A1040CE
:100E90002843C860216808692E4A10403043086121
:100EA0000021626B206801F010F92B49A26B2068C9
:100EB00001F00BF90F212069C94300282CD0012231
:100EC0005205904216D1226E002083001646DE4065
:100ED000F3431B0702D0401C0828F6D301281BD07F
:100EE0002068836A237F9B001B1FDB06DB0E994073
:100EF000114381622068C06818490840A84210D197
:100F00000020E065A06D80088000401CA06513E013
:100F1000012000040543ADE72068826A0A4382622B
:100F2000E8E7A06D0221884310210843A065E06D29
:100F300001210843E06501273846FEBDE8FFFF7F39
:100F4000400D03002C00002002FCFF1F0027014081
:100F50001902FEFF02FCFFDF04FFFF07E7FF3F83EC
:100F60007047000070B586B0054614216846FFF74B
:100F700010F92349286888423FD12248026801219C
:100F800009050A4302600068084005901D48403882
:100F9000416B012211434163406B002610400590D4
:100FA0000620009003200190052069460296000764
:100FB00000F08EF9154C14482060A6600520E6600C
:100FC000606080202061400060618000A06120207E
:100FD000E061032000032062204600F0CFF80028E3
:100FE00001D0FFF797FB2C65002211460C20A5626B
:100FF00000F094FA0C2000F085FA06B070BD0000F5
:10100000002401404010024008000240AC010020D2
:10101000F7B50446006801F045F8002845D125469B
:101020004035287D012840D001272F752068C168F0
:101030001F4EC9070CD101F031F8002804D02068F8
:1010400081683140891C81602068C1683943C16072
:101050002046FFF753F9002826D1A06D1549084016
:10106000FF2101310843A0650020E065226D12498F
:10107000D162226D11491163226D114951632268B9
:101080001C211160287520684168102211434160BD
:101090002168206D4031029B019A00F0C1F821685F
:1010A0008A683240121D8A60FEBD0220FEBD00002B
:1010B000E8FFFF7FFEF1FFFFED0100088702000857
:1010C0006D020008F0B42C490C6802681368056CC6
:1010D0001C273D400426AE40264211D05E070FD5A6
:1010E00013689B0603D4146804239C4314604B6864
:1010F000046C04223C40A24013434B60016B1CE093
:101100000227AF40064627402036002F19D09F0700
:1011100017D513689B0605D413680A24A3431360EC
:10112000012272714B68046C1C2214400222A240FE
:1011300013434B6000213171C16A00291AD0F0BC01
:1011400008470827AF40274214D01B0712D5136861
:101150000E24A34313604B68046C1C22144001222C
:101160001546A5402B434B60C2637271002131715B
:10117000416BE2E7F0BC70470000024070B504002C
:101180003FD02548256814212818FEF7ADFF8000C0
:101190002064022026462036707128681F490840C6
:1011A0002860E168A0686269084321691143084327
:1011B000A1690843E1690843216A084321680A6874
:1011C000104308602046FFF755F90121A068890304
:1011D0000025884200D165602079616C8006800E10
:1011E0000860A06CE16C41606068401E03280AD86A
:1011F0002046FFF757F9206D0560606DA16D4160D5
:1012000004E0012070BD25656565A565E5630120E5
:1012100070713571002070BDF8FFFDBF0F80FFFFBA
:10122000F8B504468C4620300179002501290BD001
:101230000126067141790027012907D08021E16349
:10124000077101252846F8BD0220F8BD0221417131
:10125000E76320680168490849000160614620464B
:10126000FFF734F9206B00282068016801D00E22B6
:1012700005E0042291430160206801680A221143BD
:101280000160606C0168CA03074902D502680A431D
:101290000260206D002802D002680A4302602068C4
:1012A000016831430160CDE70001000070B50446DC
:1012B00000F0C8F80546601C02D0044800782418E5
:1012C00000F0C0F8401BA042FAD370BD0800002017
:1012D000FCB5002301259AE022462C469C40224082
:1012E0006FD04E68012E05D0022E03D0112E01D0F2
:1012F000122E16D186680327B4465E00B646B74064
:101300006646BE43B446CF687646B7406646374326
:1013100087604668A6430C79E406E40F9C4034439A
:101320004460C6685F000324BC40A446A6438C68A2
:10133000BC403443C4604C68022C01D0122C14D140
:10134000DC08A40024180194266A5C07B646E60E61
:101350000F24B44000967646A643B6460C69009E1C
:10136000B44076462643019C266204686646B44330
:101370000E79B607B60FBE40264306604C68E400FF
:1013800044D59E08254CB6003419A446246E9E0709
:10139000F60E0F27B740BC4305273F07B84201D1DF
:1013A000002710E01E4FB84201D101270BE01D4F6E
:1013B000B84201D1022706E01B4FB84202D10327F1
:1013C00001E023E00527B740274364462766134E14
:1013D000803634684F689443FF0300D5144334606B
:1013E00074684F689443BF0300D5144374600B4C7A
:1013F00026684F689643FF0200D51643266066684C
:101400004F689643BF0200D5164366605B1C0A68AE
:101410001446DA4000D05FE7FCBD0000001802402F
:101420000004005000080050000C00500069084003
:1014300000D001207047002A01D08161704781628D
:1014400070470000014880687047000008000020D5
:10145000024881680278891881607047080000207E
:1014600010B5084800240168821511430160204628
:1014700000F00AF8002801D0012401E000F028F86B
:10148000204610BD0020024070B50F4E0024317878
:101490000546002915D07D20C000FEF725FE014637
:1014A0000A480068FEF720FE00F080FD002808D101
:1014B000042D06D200222946401E00F02FF8756048
:1014C00000E00124204670BD080000202C00002010
:1014D00008B50B4801680122114301600068104003
:1014E000009007484038C26B01040A43C263C06BD6
:1014F000084000900320400200F04EFD08BD0000AF
:1015000040100240002805DBC106C90E01208840BA
:10151000014908607047000000E100E010B501F0EB
:10152000F7FA10BD10B50F4C216803225202914307
:1015300001432160C11FFF39FA390ED10A48062143
:10154000006848430949FEF7CFFD401C02E000282F
:1015500005D0401E61694905F9D4002010BD032063
:1015600010BD0000007000402C00002040420F0021
:10157000F8B5044600680026524D800358D55148FE
:1015800000274038C06BC00009D44E484038C26BB9
:1015900001040A43C263C06B0840012700904A4817
:1015A0000168821511430160FFF74CFF009005E0D0
:1015B000FFF748FF0099401A022825D842480068E2
:1015C000C005F5D5E8690321090208400FD0A169DB
:1015D00081420CD0E86903210902EA6988430121AC
:1015E00009040A43EA61EA698A43EA61E861C007DB
:1015F0000FD0FFF727FF009008E0FFF723FF0099C7
:10160000411A3248814201D9032609E0E86980077E
:10161000F3D5E869032109028843A1690843E86119
:10162000002F05D027484038C16B02049143C163A5
:101630002078C00705D06869616880088000084389
:1016400068612078800705D568690C218843A16806
:10165000084368612078800606D56869032109037C
:101660008843E168084368612088400411D56869AF
:101670006169800080080843686101216069890709
:10168000884206D10F484038C16801221204114334
:10169000C1602088000512D5686903218903884349
:1016A000216908436861012120698903884206D1C4
:1016B00004484038C168012212041143C160304619
:1016C000F8BD000040100240007000408813000088
:1016D000F8B50F46060043D04D4D28684007400F2F
:1016E000B84213D22868C008C00038432860FFF70A
:1016F000A9FE044605E0FFF7A5FE011B454881420F
:1017000061D828684007400FB842F4D13068424C95
:1017100081070DD5400704D5A068072109030843B8
:10172000A060A0680F2109028843B1680843A06047
:101730003078C00732D0706801280AD002280BD058
:1017400000280FD03449403103280ED0C9698907D9
:1017500004E02168890301E021688901002906DB92
:101760000120F8BD21684905F8E7096AEFE7A1689B
:10177000C908C9000143A160FFF764FE009006E0BC
:10178000FFF760FE0099411A224881421BD8A068E9
:10179000382108407168C9008842F1D128684007A3
:1017A000400FB84217D91A480168C908C90039431F
:1017B0000160FFF747FE054607E0FFF743FE411BC8
:1017C0001448814201D90320F8BD11480068400740
:1017D000400FB842F1D13078400706D5A068072104
:1017E00009038843F1680843A06000F01DF8A16870
:1017F0003C2289091140094A515CC906C90EC840FA
:101800000749086007480068FFF73EFEF8BD000082
:101810000020024088130000001002407C5C000899
:101820002C0000200C00002010B5204CA068204A9D
:101830008006400F16D0A0688006410F5010012985
:101840000FD0A1688906490F022912D0A06880062E
:10185000400F042823D0A0688006400F032821D021
:10186000002010BD206801218004400F81401046F7
:1018700012E0E1688B07E1689B0F4906490F491C9C
:10188000032B00D01046FEF72FFCE1684904490EF7
:101890004843E168490F491CFEF726FC10BD0120B2
:1018A000C00310BD7D20000210BD000000100240EA
:1018B0000024F400F8B504007ED020783827C00753
:1018C000EB4D002846D0A868E96838408907890FA1
:1018D000102802D008280BD001E0032908D00120ED
:1018E0006268000482420AD129680143296015E038
:1018F000286880032ED560680028DDD02AE0052303
:1019000001211B0489049A422A6802D10A432A60F1
:10191000EAE782432A6028688843286060680028D4
:101920000CD0FFF78FFD064604E0FFF78BFD801B10
:10193000642873D828688003F7D50BE0FFF782FD91
:10194000064604E0FFF77EFD801B6428F1D8286876
:101950008003F7D42078800769D5A868E968384003
:101960008A070721920FC902102802D0002813D03D
:1019700001E0022A10D0E068002846D02868884399
:101980002169084328602868FF2101310843286045
:10199000FFF758FD06462CE02A68520502D5E2689A
:1019A000002A89D06A687F231B029A4363691B025D
:1019B0001A436A60002800E08DE00ED12868884351
:1019C000216908432860286801218004400F814074
:1019D000A848FEF789FBA8490860A8480068FFF7F7
:1019E00053FD002877D122E0FFF72CFD801B022851
:1019F0009FD828684005F7D568687F210902884389
:101A0000616909020843686011E02968FF2001301C
:101A100081432960FFF716FD064605E098E0FFF7D1
:101A200011FD801B022884D828684005F7D420784F
:101A3000934E00072ED5A8688006400F03280AD0D1
:101A4000A0690028306A16D0012108433062FFF7F0
:101A5000F9FC07460BE0306A80071BD5A069002817
:101A60009FD017E0FFF7EEFCC01B022870D8306A49
:101A70008007F7D50EE0400840003062FFF7E2FC37
:101A8000074604E0FFF7DEFCC01B022860D8306A7E
:101A90008007F7D4207840076CD5A8680027800617
:101AA000400F042818D0E86BC00008D4E96B01206F
:101AB00000070143E963E96B014001270091714888
:101AC0000168C90519D40168821511430160FFF747
:101AD000B9FC00900DE083E0F06980074AD5A0686A
:101AE00000287DD046E0FFF7ADFC0099401A02289F
:101AF0002ED864480068C005F5D5A168012910D02A
:101B000004200529F16911D049084900F161F16902
:101B10008143F161A068002816D0FFF793FC009084
:101B20000EE0F06901210843F061F3E70143F16140
:101B3000F7E7FFF787FC0099411A534881426DD8B7
:101B4000F0698007F5D50EE0FFF77CFC009007E018
:101B500064E0FFF777FC0099411A4B4881425DD859
:101B6000F0698007F5D4002F04D0E96B012000074D
:101B70008143E963E069002877D0A9688906490FA5
:101B8000022951D001263606022828680DD0B0431C
:101B90002860E86880088000E860E8683B49084001
:101BA000E860FFF74FFC04463AE0B0432860FFF7D7
:101BB00049FC074604E0FFF745FCC01B02282DD86E
:101BC00028688001F7D4616A206AA26A0843E16A42
:101BD000120211430843216B0843E9682C4A00E0D4
:101BE00041E011400843E860286830432860E86815
:101BF000012109070843E860FFF724FC044604E0DC
:101C0000FFF720FC001B022808D828688001F7D5C0
:101C10002BE0FFF717FC001B022801D90320F8BDB9
:101C200028688001F5D420E00128F8D0E868226A0D
:101C30008107890F914216D17021626A0140914259
:101C400011D17F21A26A09020140120291420AD1F8
:101C50001F214904E26A0140914204D1400F216BE7
:101C60004007884201D00120F8BD0020F8BD0000E7
:101C7000001002400024F4002C0000200C00002082
:101C8000401002400070004088130000FFFFFEEF8C
:101C90008C80C11F10B500680B464068C021C94345
:101CA00001400002000ECC04D870E40E5C708C067B
:101CB000A40E0904490F9C701970002A0AD100F083
:101CC00026FCD870587800F022FC5870987800F004
:101CD0001EFC9870002010BD10B50B460168896885
:101CE0005960016809694904490C996000680168F4
:101CF0000E4801408802800E4C041870640E5C701F
:101D00004C06640E4902C90F9C70D970002A0AD192
:101D100000F0FDFB1870587800F0F9FB58709878C7
:101D200000F0F5FB9870002010BD00007F7F7F0061
:101D300070B504460120002C49D025462035687A2C
:101D4000002806D128721120C0026060204600F0F1
:101D500041F8022068722168CA2048622168532035
:101D60004862204600F0E7FB002829D120688169FD
:101D7000174A1140816121688869A268E3691043AC
:101D800062691A43104388612168206908612068EC
:101D90000169A289120411430161204600F0EEFBA3
:101DA00000280DD121688A69D200D2088A61226890
:101DB0009169636AA6691943236A334319439161A0
:101DC0002268FF215162002801D10121697270BD92
:101DD000BFFF8FFB08B50068094988420ED109484A
:101DE000C1690122D2031143C16106484038C26B68
:101DF00001150A43C263C06B0840009008BD000093
:101E00000028004040100240F8B50646054620363E
:101E1000307A0B4601280FD00127377202207072EA
:101E2000002A0BD0D8789C780004044358780978AD
:101E300000024903084317E00220F8BD5878C106A4
:101E400003D5EF2108400A305870D87800F067FBBE
:101E50000404587800F063FB00020443987800F013
:101E60005EFB04431878400304432968CA20486293
:101E7000296853204862284600F05DFB002806D1FF
:101E80000748044028684460284600F077FB2A6829
:101E9000FF215162002800D1777200213172F8BD14
:101EA0003FFFFF00F7B5064605462036307A0C4660
:101EB000012810D001203072022070722968CA20D7
:101EC0004862296853204862284600F034FB002706
:101ED000002802D027E00220FEBD029800282868D2
:101EE000806926D0400600D4E7702078A3780004EB
:101EF00003436078E17800028905084303431848EA
:101F00000340286803602868816901229204914394
:101F100081612169E068084329688A691043886102
:101F2000284600F02BFB2A68FF215162002813D0BD
:101F300014E0400600D4E770207800F0F0FA0304C3
:101F4000607800F0ECFA00020343A07800F0E7FAB2
:101F50000343E0788005D1E7012171723772FEBD3D
:101F60007F7F7F0070B504460068C168A02291435E
:101F7000C160FFF767FA7D260546F60006E0FFF729
:101F800061FA401BB04201D9032070BD2068C068CF
:101F90008006F4D5002070BD03490A6803235B0264
:101FA0009A4302430A60704700000140094910B596
:101FB000401E884201D9012010BD074C60610321F9
:101FC000081F00F0A5FD0020A0610720206100206F
:101FD00010BD0000FFFFFF0000E000E0FEE7000092
:101FE00010B52D482C490288AF20192300014988DB
:101FF000DB01824205D2814203D9994201D20120FC
:1020000010BD9A4205D9814203D9994201D20320D9
:1020100010BD814205D2824203D99A4201D20220E8
:1020200010BD994205D9824203D99A4201D20420B7
:1020300010BD824203D2814201D2052010BD9A42D6
:1020400003D9814201D2062010BD824203D29942B7
:1020500001D9072010BD9A4203D9994201D908201D
:1020600010BD0524240708212046FFF7DFF90128C9
:1020700010D01420FFF71AF908212046FFF7D6F9EF
:10208000012807D008212046FFF7D0F90128F9D10F
:10209000092010BD002010BD040000208068C0078A
:1020A000C00F704780684007C00F7047C0680005C8
:1020B000800F01D00020704701207047026807237D
:1020C0009B059A430A430260704710B54369042494
:1020D000214007248C40A3438A401343436110BD31
:1020E0003EB500242048009401941E4902940160EA
:1020F000032184608904C4604160012104254905ED
:102100004561016104764476012282760221C16133
:10211000014620310C70446284620A7306224263D5
:10212000046382630C77C464FEF7F4FD002801D0D9
:10213000FEF7F0FA0D4800900194694602940A48AF
:10214000FEF72AFC002801D0FEF7E4FA08480090C8
:10215000694601950448FEF71FFC002801D0FEF7F0
:10216000D9FA3EBD002401404801002002000004CD
:102170000400000808B50848816B012211438163FF
:10218000806B10400022009011460920FFF7C6F92D
:102190000920FFF7B7F908BD00100240F0B587B07D
:1021A00014216846FDF7F5FF2748426B20210A43BA
:1021B0004263426B0A400592416B01242143416313
:1021C000416B21400591426B02210A434263406BFF
:1021D000224608400590052021460007FFF72BF90D
:1021E0000F263603012231461848FFF724F967020B
:1021F000002239461548FFF71EF9002505200094F6
:1022000002956946000703950194FFF761F80820DD
:10221000009005206946019502940007FFF758F8E1
:102220000320039001946946009602940748FFF743
:102230004FF8029569460548009703950194FFF70A
:1022400047F807B0F0BD0000001002400004005045
:1022500010B586B014216846FDF79BFF00241F4887
:1022600005941D49846001607F21C16044618461DF
:10227000FF21C46101610121890744620162FFF706
:1022800057FD002801D0FEF745FA08216846017085
:1022900030214170847001940394012269460F48F3
:1022A0000494FFF7FFFD002801D0FEF733FA052163
:1022B0006846017512214175292181752321C17557
:1022C000012205A90548FFF79FFD002801D0FEF770
:1022D00021FA06B010BD00000028004008020020CE
:1022E000FEE770B500242046B030C0B2002100F0F7
:1022F000CFF80021084600F0CBF80021102000F0B4
:10230000C7F800250121002000F0C2F86D1CEDB2D5
:10231000802DF7D3641CE4B2082CE4D370BD000018
:1023200030B587B014216846FDF733FF4C48426B47
:1023300002210A434263406B0F24084024030094A7
:102340000590012001900020464D029003906946BF
:102350002846FEF7BDFF012221462846FFF76BF80D
:102360006420FEF7A3FF0021AE2000F091F80021C9
:10237000084600F08DF80021102000F089F80021B7
:10238000402000F085F80021812000F081F8002134
:10239000CF2000F07DF80021A12000F079F8002185
:1023A000C82000F075F80021A62000F071F8002187
:1023B000A82000F06DF800213F2000F069F800210E
:1023C000D32000F065F80021084600F061F80021F4
:1023D000D52000F05DF80021802000F059F80021A0
:1023E000D92000F055F80021F12000F051F800212B
:1023F000DA2000F04DF80021122000F049F8002109
:10240000DB2000F045F80021402000F041F80021D9
:10241000202000F03DF80021022000F039F80021D2
:102420008D2000F035F80021142000F031F8002153
:10243000A42000F02DF80021A62000F029F80021AA
:10244000AF2000F025F80021AF2000F021F8FFF7C1
:1024500048FF0021084600F007F807B030BD000033
:10246000001002400004005010B50446B031C8B25C
:10247000002100F00DF820090021103000F008F8CC
:102480002007000F01210843002100F001F810BDD2
:10249000F8B51D4D0646002901D0012200E00022BA
:1024A0000121C9032846FEF7C6FF012100220903C6
:1024B0002846FEF7C0FF002401277F03002239468B
:1024C0002846FEF7B8FF300601D5012200E00022C1
:1024D000012189032846FEF7AEFF0122394628462E
:1024E000FEF7A9FF7006641C060EE4B2082CE5D3C3
:1024F000012211032846FEF79EFF0122D103284640
:10250000FEF799FFF8BD0000000400507047010974
:102510000A2200075143000F4018C0B27047002242
:10252000014602E00A39C9B2521C0A29FAD2100740
:10253000000E08437047F8B5044600680025C168DE
:10254000490618D4C16880221143C160FEF77AFFA2
:1025500027460646203708E0FEF774FF811B7D20E2
:10256000C000814201D903257D722068C068400601
:1025700001D4032DF0D12846F8BD0000F8B5124C67
:102580000026E16880229143E160A1690546890641
:102590002035002907DBFFF7E5FC002811D00320D8
:1025A000687206460DE0A1692027B943A161FFF7D3
:1025B000D9FC002802D0032068720646A06938437F
:1025C000A0613046F8BD000000280040704710B5FB
:1025D000FEF73EFF10BD70B598B034216846FDF798
:1025E000D8FD00241494159416941C210DA817945A
:1025F000FDF7CFFD012676023046FEF793FF0A2055
:102600000090701003904020059001200690082053
:102610000A90022580030B900795000304940C9008
:10262000089509946846FFF745F9002801D072B66D
:10263000FEE707201490169402211595179414A80C
:10264000FFF746F8002801D072B6FEE709208003A4
:102650000D904004129013960DA8FEF789FF0028F4
:1026600001D072B6FEE718B070BD0000012002492B
:10267000C00688607047000000ED00E00148006877
:10268000C06800471400002010B500F039F800F0D1
:102690006FF90449024808600068804710BD0000D7
:1026A00034020020140000207047000010B5FFF72E
:1026B00097FC0F4901280CD003280FD0092807D117
:1026C0000878002804D10C490A480860006880474F
:1026D00010BD0878002806D0401E03E008780328C3
:1026E00001D2401C08706420FEF7E0FD10BD000020
:1026F0001800002044020020140000207047000051
:102700000548044901600549416005498160054962
:10271000C1607047FD26000834020020A926000889
:1027200029270008AD260008FEB500224749484881
:10273000FFF7D2FA012247494548FFF7ABFA46496D
:10274000464800F08BFD414881780091437802783B
:1027500043A1474800F0BAF946A3082200213F48A8
:1027600000F008FD424B082250213C4800F002FDD9
:10277000444C454D20781E264027012827D00228AA
:102780003ED00021354800F066FD2078E121890027
:102790004843401901901E230F22312100962F48F3
:1027A00000F0F0FC20781921384D48434019FDF71E
:1027B000FBFC062148434008381A81B220781922D0
:1027C000504343193C22254800F0D4FCFEBD0021B3
:1027D000224800F040FD2078E1218900484340195B
:1027E00001901E230F22312100961C4800F0CAFCE4
:1027F000FDF7D0FE264828A103782648027817E086
:102800000021164800F027FD2078E1218900484387
:10281000401901901E230F22312100960F4800F02D
:10282000B1FCFDF7BFFD214822A1037820480278C2
:102830000F4800F04BF90E48FDF7B6FC062148435F
:102840004008381A81B20A4BBCE70000340100206E
:102850000802002000000020584C0008A0000020C2
:10286000252E32643A252E32643A252E3264000039
:102870003C0000204D61696E204D656E752033333C
:102880000000000018000020E43D0008F44B0008A0
:10289000230000202200002054656D703A2025306E
:1028A00032642E2530326400000000002400002035
:1028B0002500002048756D69646974793A202530D7
:1028C00032642E25303264000000000070470000A2
:1028D00070B5224C0025A07B0126002803D00128DA
:1028E00016D0022813D1FFF77BFB00280FD0A67368
:1028F000E57325711948FDF764FF3C22114617481E
:10290000FDF70AFFC82211461448FDF705FF70BD08
:10291000FFF766FB012811D0FFF762FB022812D0F7
:10292000FFF75EFB032813D0FFF75AFB0428EED114
:1029300060790128EBD00320607170BD60790228B6
:10294000FBD0657170BD60790328FBD0667170BDE6
:1029500060790028FBD00220EEE70000540200203E
:1029600010B50248FDF742FF10BD000054020020E0
:1029700005480449016005494160054981600549F0
:10298000C16070476129000844020020CD2800087A
:1029900099290008D1280008F8B52F4CA07B002801
:1029A0001FD001282BD002281AD12C492C4800F026
:1029B00055FC1E222BA31146294800F0DBFB2046C4
:1029C000E27B2BA1103000F081F823461033322235
:1029D0000A21234800F0CEFB7D20C000FEF766FCF4
:1029E000F8BD1E491E4800F039FC142224A31146EC
:1029F0001B4800F0BFFB282225A3142128E016481D
:102A0000FDF702FF002506260AE0E8002168821C87
:102A10008A5A095A0623124800F0C5FA6D1CEDB215
:102A200020790096A842F0D82289E18806230C4834
:102A300000F0B9FA19490A4800F010FC0648E27B98
:102A400017A1103000F042F8034B0A221033062180
:102A5000034800F08FFBF8BD54020020B155000878
:102A6000A000002047616D65204F7665722100004F
:102A7000796F75722073636F72653A202564000068
:102A8000507265737320616E79206B657900000068
:102A9000746F20737461727421000000584C000838
:102AA00073636F72653A20256400000010B5054815
:102AB00000F06EFA0448006880688047014800F022
:102AC000C2FB10BDA0000020140000200FB410B500
:102AD00004A9074B02AA039800F04CF8044602A987
:102AE000002000F0EFF9204610BC08BC04B01847E5
:102AF000C52E000830B47446641E2578641CAB42B1
:102B000000D21D46635D5B00E31830BC184700002F
:102B10008307FF22DB0E9A408907090E994000289F
:102B200008DB830809489B001B181868904308437A
:102B3000186070470007000F0838830804489B009E
:102B40001B18D86990430843D861704700E400E03F
:102B500000ED00E002E008C8121F08C1002AFAD107
:102B600070477047002001E001C1121F002AFBD10D
:102B700070470000FFB58FB00546002606E0252807
:102B80000AD0129A119990476D1C761C287800285B
:102B9000F5D1304613B0F0BD002402940121B54AAE
:102BA000009400E004436D1C2B780846203B9840BD
:102BB0001042F7D128782A280ED002222878014620
:102BC0003039092916D802990A2359433039401857
:102BD00014436D1C0290F1E7109802C80291109006
:102BE000002904DA012040030443484202900220F5
:102BF00004436D1C28782E2817D1042004436878DC
:102C00006D1C2A280CD110986D1C02C800911090E0
:102C10000BE000990A225143303940186D1C009096
:102C20002878014630390929F3D928786C2810D042
:102C300006DC4C281AD068280ED06A2817D104E088
:102C4000742813D07A2812D110E0012040050443E3
:102C50000CE00121090501E0032109050C43697815
:102C6000814203D10120000524186D1C6D1C2878B9
:102C7000692874D006DC00288BD0632827D064280C
:102C800006D16CE06E2808D073282CD0752878D037
:102C9000129A11999047761C5FE06002400F02285B
:102CA00009D003280DD00428109801680DD00E60BB
:102CB000001D109051E01098F21701680E604A60F4
:102CC000F6E7109801680E80F2E70E70F0E71098B2
:102CD0006A4601781173001D10900020507303A8FC
:102CE0000190012005E0109802C801911090002089
:102CF000C04361070CD5002700E07F1C00998F427C
:102D00000FDA8742F9DB0199C95D0029F5D108E0A6
:102D1000002700E07F1C8742FCDB0199C95D002988
:102D2000F8D102982146C01B0290129B119A00F024
:102D3000B3F88019C61907E0019801990078491C79
:102D40000191129A119990477F1EF5D22146129B4C
:102D5000119A029800F090F886196D1C16E70A2067
:102D60000190109901C910916102490F032900D106
:102D700000B2042900D140B2002803DA40422D21DC
:102D800003E00DE0210504D52B216A4611730121D2
:102D900003E0E10711D02021F7E70CAF0C9114E01C
:102DA0000A200190109901C910916102490F03296D
:102DB00000D180B2042900D1C0B20021EDE7019911
:102DC000FDF792F930317F1E39700028F7D104A841
:102DD000C01B20300190600704D50120000484430B
:102DE000009801E0012000900199884201DD401A1D
:102DF00000E00020411800900C9809180298401A31
:102E00000290E00306D42146129B119A029800F02A
:102E100043F8861900200D9008E003A9085C129A77
:102E2000119990470D98401C761C0D900C99884282
:102E3000F3DBE0030CD52146129B119A029800F0B7
:102E40002BF8861904E0129A302011999047761CCD
:102E50000099481E00900029F5DC05E03878129AA8
:102E60007F1C11999047761C0199481E01900029FA
:102E7000F4DC6BE709280100F8B5044600251E467E
:102E80001746880404D405E039462020B0476D1C5D
:102E9000641EF9D52846F8BDFFB50446002581B06B
:102EA0001E46C80301D5302700E02027880404D53A
:102EB00005E038460399B0476D1C641EF9D52846D5
:102EC00005B0F0BD0A68531C0B601070704700001D
:102ED000FEF7C6FAFFF77FFBFFF760F9FFF74AF945
:102EE000FFF7FEF8FFF7B4F9FDF790FB0A4800F092
:102EF00071F9FFF7C9FB0948FDF7FAFC002801D07A
:102F000072B6FEE7022206490448FEF781F8FFF791
:102F1000CDFDFFF7B3FBFAE7A00000204801002039
:102F200004000020F0B50B30C108C900144F002682
:102F3000144A0FE003688B420BD38B4205D95C1A0D
:102F40004318456830C3083B00E04368136002C083
:102F500004E0021D10680028ECD13046002803D19F
:102F60003868002801D00020F0BD064A06481060ED
:102F7000064A121AD208D20044C001203860D7E7AE
:102F80003800002034000020DC060020D808002093
:102F900010B501680A7C3821095C406B5143C900B7
:102FA000FDF7F7F810BDFFB581B00A9C1E46101959
:102FB00080B2009002981546801983B20299019858
:102FC00000F02EF900280ED00027002C0BD033463D
:102FD0002A4600970299019800F03EF86D1C641E85
:102FE000ADB2A4B2F1E705B0F0BDF8B5044660306B
:102FF000007C1F4615460E46002806D0012809D041
:1030000002280CD0032815D10FE0E16D2046884737
:10301000401908E0E16D20468847301A09E0E16D6B
:1030200020468847281A85B204E0E16D204688478B
:10303000801986B22246284640329684D08439468A
:103040000025204600F03BFB010003D0204600F0A5
:1030500065FA85B22846F8BD7FB50546803082B056
:10306000007B0A99002836D06846808A002832D032
:10307000012811D9022902D0032907D00CE06A46A1
:103080009289101A6A46401C908105E06A46128AAD
:10309000101A6A46401C1082CE072C46F60F4034A8
:1030A000002E1AD0684621898089814213D861890F
:1030B000814210D9E389A28905A904A800F09EF9EC
:1030C000002808D00096286B84686846838A028AA4
:1030D00081892846A04706B070BD6846A189008A4C
:1030E0008142F8D8E1898142F5D96389228905A90D
:1030F00003A8E3E7FFB583B0039C1E468034A77C9A
:10310000002F10D000200190059803AD401C80B224
:1031100000900498801983B207CD00F081F8002850
:1031200026D0012521E00120EDE70C980078284207
:1031300001D0A77404E0607C002808D10198A07435
:103140000020009003A807C80123FFF785FF04981B
:10315000401C80B20490680005062D0E03D10C9827
:103160000125401C0C90761EB6B2002EDDD1A7744E
:1031700007B0F0BD10B5024C446000F06DF910BD11
:10318000C9390008FFB583B0D81D0004C00C0C9DE0
:103190000190501980B2009004981C46001983B227
:1031A00016460D9F0499039800F03AF800280FD0B6
:1031B0000CE023463246009704990398FFF79AFFE4
:1031C0000198761C3F186D1EB6B2ADB2002DF0D13D
:1031D00007B0F0BD10B504460D4B0E4A0E4900F085
:1031E00085F8204600F0AFFB0021204600F0BBFB35
:1031F0000121204600F043F80021204600F03CF871
:103200000649204600F02AF82046FFF7C1FE10BD0F
:103210004D3D0008D9390008185A0008584C0008DC
:1032200070B5044640341E460D46E189A089049BD2
:1032300000F09CFA002805D06189208933462A468F
:1032400000F094FA70BD10B5044600F01CFB204657
:1032500000F081FB10BD80304174704710B504460A
:10326000806D884207D020467430A16500F0D6FA00
:10327000204600F057F810BD603001747047603090
:10328000417370470149C16570470000D13400089F
:103290000022014640310A828A82034A4A82CA8257
:1032A000016B496808470000FFFF0000F8B50025E2
:1032B000069F04468565C3624163203002764576E9
:1032C000264660362046803075734574457301216B
:1032D0008174C17427633968204688472046FFF708
:1032E000D7FF2046FFF7CEFF3574F8BD7CB50093BD
:1032F0000C4613460546084A084900F03CFB01A865
:1033000000F086FA0146684600940279044B28468C
:10331000FFF7CCFF7CBD0000DF3A0008493C000805
:103320008537000810B5816D002917D0014680311E
:1033300001228A568A730223CB56CB734C7B002C16
:103340000CD0012C0BD07E240457002008562418E2
:10335000944200DD8C73834200DDC87310BD0320EE
:103360000856824200DA887304200856F3E7002BDF
:1033700005D0012B05D0022B06D0801802E04018A2
:1033800000E0801A80B27047401AFBE7002B05D09E
:10339000012B05D0022B06D0401A02E0801800E075
:1033A000401880B27047801AFBE738B504460546DE
:1033B0004034E08A0090638AA28A218A2846FFF777
:1033C0002FFF8035002816D0012028732189208AFC
:1033D000814200D220816189608A814200D9608166
:1033E000A189A08A814200D2A081E189E08A81423C
:1033F00000D9E08138BD0020287338BD30B504887D
:103400000D882D19ADB2AC4205D99C4202D25D1E89
:10341000ADB200E014469C4201D2954201D8002092
:1034200030BD944200D214469D4200D91D4604800E
:10343000281B0880012030BD38B5C58F049C00943E
:10344000521BC46A92B2A04738BD38B5049C0094A0
:10345000FFF7F2FF38BD0000FFB581B01C460646FD
:1034600000F0BCFC194F0025726821783046904767
:103470000346B84226D01548641C401E8342F3D050
:103480003046039A0299FFF7B0FD7021895D00294B
:1034900006D0012907D0022908D003290FD10AE05C
:1034A0000299091804E00399091806E00299091A1B
:1034B00089B2029103E00399091A89B2039128188D
:1034C00085B2D1E7284605B0F0BD0000FFFF00003F
:1034D0000020704710B50C4600F006F80122641E6B
:1034E000A240801A40B210BD70B50568047B2A78EE
:1034F000E2406318DBB2082B09D30826341B6D1C8D
:1035000005602D78A5401543083BEAB2DBB20124E3
:103510008C40641E14400373204670BDF3B583B025
:10352000039C2046603400F006F90B256557A17E08
:103530002046FFF7CFFF0746E17E2046FFF7CAFF90
:103540000646217F2046FFF7C5FF01900A2020563E
:10355000002858DDA819404246B2237CA088324694
:103560003946FFF704FFA080237C3246E0883946C5
:10357000FFF70CFFE080A188267C02460B46002E58
:1035800006D0012E0AD0022E40D0032E0FD146E0E5
:103590000A26A65773189BB2501907E0591B0A2632
:1035A000491C5B1CA65789B29BB2B01880B2009030
:1035B0000398FFF735FE002825D0002020726072A6
:1035C0002046A17DFFF790FF07462046E17DFFF7EB
:1035D0008BFF064600223946039800F029F80122A5
:1035E0003146039800F024F801212046FFF77CFFC4
:1035F0000028EFD1092161562046A942E0DB817BFA
:10360000039880308174019805B0F0BD0A26A65752
:10361000991B491C5B1C89B29BB2421B04E00A2621
:103620004B19A6579BB2821B521C92B2401CBDE79D
:10363000F7B588B0089C0D466034277A607A05900B
:10364000089880300690A07AC01BC6B20196B54299
:1036500000D20195A088E18804910599237C4AB2A3
:1036600079B203920091FFF782FE0290237C039AC5
:1036700000990498FFF78AFE02460A98002801D0B4
:10368000A17B03E0607B002809D1E17B069881746F
:10369000207C0090019B02990898FFF7DDFCB54261
:1036A00007D3A81BC5B205980027401CC0B20590DF
:1036B000C9E778192072059860720BB0F0BD70B53B
:1036C0000D460146806D80311730FF2D0FD8612DDA
:1036D00001D3098902E0412D01D3C9880818417836
:1036E00000291FD00278AA42F8D1801C70BD4989F8
:1036F0000C1826460021304600F016F80419022165
:10370000304600F011F8361DA842F3D320780102AC
:103710006078084306D0A84201D1E01C70BDA078B3
:103720000419F3E7002070BD4018017840780902C1
:10373000401880B2704730B50446054601666034D3
:1037400000202073217E2046FFF7CEFEA072617E0E
:103750002046FFF7C9FEE0728035A97CA1730029DD
:1037600002D00020E07330BD0120FBE78A4205D281
:10377000834201D89A4203D9012070478342F9D885
:1037800000207047F0B58E465607760F0121B140F4
:10379000CFB2014680318C460025897C2C46012918
:1037A00001D83D4600D03C460768D2083F7CD20095
:1037B0005743426BBFB2D119059A7144002A09D10F
:1037C0000878284360400870491C5B1E1B041B0CD2
:1037D000F6D1F0BD0A78761C2A43624076075B1E5C
:1037E000760F0A709BB2002E06D06A06150E62068E
:1037F000140E002BEED1F0BD428F51186246927C20
:10380000012A02D80125012AF3D00124F1E70000A2
:103810000821017000487047C802002070B50546B5
:1038200008782870487868708878A870C878E87038
:10383000087928714879687188790C46A871E0790F
:10384000E871207A2872607A6872A07AA872E07AA9
:10385000E872207B2873607B6873A07BA873E07B91
:10386000E873207C287411212046FFF75DFF6882F1
:1038700013212046FFF758FFA88215212046FFF7A5
:1038800053FFE88270BDFEB5054600242030017E5E
:103890000291467E2868407C0190296827460B7C6F
:1038A000696B5F43FF043F0CC919009128463246FB
:1038B000002100F03BF8641C761C0298E4B2F6B2DA
:1038C000844202D201988642E7D3FEBD70B501461C
:1038D00020310A7E0C46D10003688187197CC9001B
:1038E0004187647EE100C1875D7CA618AE4201D9A4
:1038F0002A1B92B24030D200018089184180998AF7
:103900008180D98AC18070BD10B5FFF7DFFF10BD7F
:1039100010B50146002240310A818A884A810A880E
:103920008A814A88CA81FFF740FD10BD7CB56C468C
:10393000069D6171A27123710095012284686B4616
:103940000F21A0477CBD30B484680023A44630BC5E
:103950001A460A21604730B484680023A44630BC6C
:103960001A461021604730B484680023A4460A46F2
:1039700030BC0B216047F8B515460E460446069F3D
:1039800000F008F86761A660E5602046236100F05A
:1039900013F8F8BD07498160C1600022016102602F
:1039A000416101462031CA708A718261FF2008712D
:1039B00008727047493D000830B484680023A4466B
:1039C00030BC1A4609216047080001D00A2800D1FE
:1039D00000487047FFFF0000FFB50446006883B051
:1039E000027B0125D207D20F0092AA1A0192182950
:1039F0004ED004DC14293AD0172904D106E0192945
:103A000054D020293ED0002007B0F0BD1D462AE04A
:103A1000401E2F78C0B200266D1C0590380601D5D7
:103A2000012200E000224121204600F0D1F9780671
:103A3000070E40212046019A00F0CAF920682C2187
:103A40008279204600F0C4F940212046009A00F017
:103A5000BFF920682C21C279204600F0B9F9761C04
:103A6000F6B2082EDAD305980028D1D11CE04278AE
:103A70004921204600F0ACF92068007BC207D20F34
:103A8000402101E0059A4A21204600F0A1F90BE00F
:103A900002784921204600F09BF9206800238278B3
:103AA00065692C212046A8470120ADE7C278002394
:103AB00065692C212046A847206849214278E3E720
:103AC00013B50122046901AB1721A0471CBD30B416
:103AD00004690023A4460A4630BC20216047FFB594
:103AE00005460846143881B016460C460300FFF719
:103AF00001F8061304040F13131A00212846FFF7D8
:103B0000E6FF31462846FFF7DBFF012005B0F0BD98
:103B100001212846FFF7DBFF2F6932462146284660
:103B2000049BB847F2E70020F0E730B4C4680023F4
:103B3000A44630BC1A461921604730B4C46800233B
:103B4000A4460A4630BC1621604730B4C46800233E
:103B5000A4460A4630BC1521604730B4C4681346F9
:103B6000A4460A4630BC17216047F8B50C46054606
:103B70002178641C182924D00EDC152919D01629A7
:103B800017D0172923D12078694608706A46012189
:103B90002846FFF7E2FF0AE0192912D0FE2916D1C4
:103BA0002278684602702921284600F011F9641C29
:103BB000DEE7227868460270EE6800232846B047A8
:103BC000F5E70023EE681A462846B047D0E7F8BD6F
:103BD00030B4C4680023A44630BC1A46182160479C
:103BE00070B50023456904461A462821A8470023DA
:103BF000E5681A4614212046A84701224B21204699
:103C000000F0E6F8206829210279204600F0E0F86B
:103C100000224B21204600F0DBF8206829210279A0
:103C2000204600F0D5F801224B21204600F0D0F8C4
:103C3000206829214279204600F0CAF870BD016051
:103C4000897C20308170704770B50C46054600F0C5
:103C500019F8002810D1092C0AD00A2C00D070BD08
:103C60002846FFF7BDFF05492846FFF77EFF03E022
:103C700003492846FFF7E3FF012070BD4A5A0008B8
:103C80004C5B0008F8B51F46144605460B2909D0C1
:103C90002E4620360D290ED00E291DD00F2926D0F4
:103CA0000020F8BD002A03D02649FFF75EFF47E059
:103CB0002449491FF9E7002A07D022490C31FFF7B0
:103CC00054FF2868C07CB0703AE01E49491DFFF7D8
:103CD0004CFF2868807CF6E7FFF77AFF81212846B1
:103CE000FFF733FF21462846FFF727FF25E0FFF7C0
:103CF0006FFF7879B178C0000818C6B24021284615
:103D0000FFF723FF310928461031FFF71EFF310767
:103D1000090F2846FFF711FFB979B0200143284663
:103D2000FFF70BFF38793A68C006010E2846FFF707
:103D300014FF641E2406240EF4D12846FFF7F5FE76
:103D40000120F8BD295A00080020704770B51046C0
:103D50001E4C0A4641290ED006DC282A17D0292AF3
:103D600018D0402930D10DE00125ED03492A14D0A7
:103D70004A2929D11FE00121890305E0012220E021
:103D800000221EE0012149030028F9D0F6E7FEF7E2
:103D9000C7FA0120FDF78AFA16E00121090300287D
:103DA00004D001222046FDF746FB06E00022204613
:103DB000FDF741FB03E0002801D0012200E00022D2
:103DC00029462046FDF737FB012070BD0004005056
:103DD00030B444690023A44630BC60470021203041
:103DE000817170470000000000000800003A1000D8
:103DF0000002000080010000002010009080000000
:103E0000E800100000020000241828000000140040
:103E10000004100000001000040010000800000062
:103E20001000080032000100CC0104000010020064
:103E30000008010000E400004050000000100000F5
:103E40006020380020D053000000400640061A02CF
:103E50000004030000EE000000000000000000006D
:103E60000000000000000000000000000000000052
:103E70000000000000000000000000000000000042
:103E80000000000000000000000000000000000032
:103E90000000000000000000000000000000000022
:104170000000000000000000007000000088010046
:104180000004010000043D000004010000043D00A3
:104190000004010000643D0000643D000064010073
:1041A00000643D000064010000643D000064010003
:1041B0000063060000FD0D0080FE0B0080FE0B007A
:1041C00080FE0B0080FD090000FB0400008E030050
:1041D000006000000000000000000000000000007F
:1041E00000000000000000000000000000000000CF
:1041F00000000000000000000000000000000000BF
:1042000000000000000000000000000000000000AE
:10421000000000000000000000000000000000009E
:10450000004000000060000000F0000000F001002A
:1045100000F8030000FC070000FE070000FE0F008B
:1045200000FF0F0000FF1F0080FF1F0080FF3F0003
:1045300080FF3F0080FF7B0080FFDB0000FFFA0070
:1045400000FE8E0100FCFE0000F09C000000380020
:10455000000000000000000000000000000000005B
:10456000000000000000000000000000000000004B
:10457000000000000000000000000000000000003B
:10458000000000000000000000000000000000002B
:104870000180FF1F0080FF3F0080FF3F0080FF3F5F
:104880000080FF3F0080FF3F0080FF3F0080FF3F30
:104890000080FF3F0080FF3F0080FF3F0080FF3F20
:1048A0000080FF3F0080FF3F0080FF3FFF7F000050
:1048B000FF7F0000FF7F0000FF7F0000FF7F000000
:1048C000FF7F0000FF7F0000FF7F0000FF7F0000F0
:1048D000FF7F0000FF7F0000FF7F0000FF7F0000E0
:1048E000FF7F0000FF7F00200000000000000000AC
:1048F00000000000000000000000000000000000B8
:1049000000000000000000000000000000000000A7
:104910000000000000000000000000000000000097
:104920000000000000000000000000000000000087
:104BF00000000000536E616B652047616D65000029
:104C00000000000000000000000000000054656D7E
:104C1000706572747572650000000000000000008D
:104C200000000000000048756D6964697479000037
:104C30000000000000000000000000000000004331
:104C40007562650000000000000000000000000028
:104C50000000000000000000BF0203020304010284
:104C600004060A00FE07FE0700017602F9093C204F
:104C700007D6F8F92300210AD6F891B43B985300DF
:104C8000220BD6F8932CC9929C37002310D6F893A8
:104C90002C890629890629C9929C00240DD6F891F1
:104CA000704AC23189C69C02250DD6F8A3A42909F1
:104CB0002B51D29413260ED6F8C3244BC24A53A6C6
:104CC000E430002709D6F891B4CE23002809D6F89D
:104CD000A1B05AAE132909D6F8E36AB14E022A0EE2
:104CE000D6F8D12C4AA2414AA22CA7022B0AD6F808
:104CF000F1341BB434672C09D6F87913EB18002D66
:104D000009D6F8D9069D1B002E09D6F8790BC71CC9
:104D1000022F0AD6F8B134EC9AD3003010D6F891AD
:104D20003089B2244BB22809730A00310CD6F891AD
:104D3000504BD2B6418701320CD6F8A72CCDB430F7
:104D40001D7418330CD6B807350CE5248B76023465
:104D50000DD6F8A1504BA2D220A63901350DD6B8F8
:104D600007254D24294DB26827360DD6F8112D4C54
:104D700013494AB26827370BD6B807354CC36A4E79
:104D800002380DD6F8A72CC9A2294BB26827390DD5
:104D9000D6F8A72C892C6998E914003A0CD6F8F1BA
:104DA00070CCC170CC21003B0BD6F8F170CC41B176
:104DB0008E013C09D6F8B1B0B91D063D0AD6F88976
:104DC000833EE88C003E09D6F8E3C67612003F0B1E
:104DD000D6F8A72CACE6604E01400CD6F8A72C897B
:104DE000942E52BC134110D6F8913089B2244B0650
:104DF000254BB21C06420CD6B8872C6ADAA2962143
:104E000027430BD6F8A72C49DBA29D00440BD6B84C
:104E1000872CEA5F869C00450DD6B807254D87286C
:104E20004D071D06460CD6B807254D8728ADD30083
:104E3000470CD6F8A72C494B4A16ED044810D6B8B3
:104E4000B3244BB26450B2244BB21C064908D6F8C6
:104E5000C7B4E34E4A0BD6F891316DAAE914004B62
:104E60000ED6B8B324AA64629245B51C064C09D686
:104E7000B8D35E071D064D0ED6B8B3244B2CDD9279
:104E80002CC972184E0FD6B8B3244BA4A493922504
:104E9000590E034F0ED6F8A72CC9922CC9922CDAC2
:104EA00009500DD6B887284BB26488D23A0D510EFE
:104EB000D6F8A72CC9922CC992A639075210D6B899
:104EC00087284BB26488922CAAE53000530CD6F8A0
:104ED000A72C89E7248B76025409D6B8072DED9DBF
:104EE00002550FD6B8B3244BB2244BB2248B7602B2
:104EF0005610D6B8B3244BB228C9922C09730A00B5
:104F0000570ED6B8B3244BB2A42F962C8701580F56
:104F1000D6B8B3248B92B012654996C300590CD60B
:104F2000B8B3248B92306DA7005A0BD6B80735EC76
:104F30003AE830005B08D6F8B7B4EB4E5C09D6B857
:104F4000D3B86B0E035D08D6F8D7DE76025E0BD6BB
:104F5000F8913089B29C27005F08D6F8F93CE80048
:104F60006008D6B8E29C5F00610DD6F8A9733424BE
:104F70005934E43000620DD6B8D38A24255922254D
:104F8000894E630BD6F8A95396A459B413640ED670
:104F9000F8B134524A4A9644961C06650BD6F8A9D5
:104FA00053960C4ABC13660CD6F8112D2A0E595A8A
:104FB0002701670FD6F8A94392255934A449164D05
:104FC00000680ED6B8D38A2425599225590E036954
:104FD0000AD6F8911C531B77026A0BD6F8B11C5302
:104FE0009BBA49006B0DD6B8D35A12455B54CB61BE
:104FF000006C08D6F8D51E77026D0BD6F8894A9456
:10500000F46F390C6E0ED6F88989242559922559EA
:105010000E036F0CD6F8A95396644916ED04700F71
:10502000D6F8898924255922258994A600710DD6A0
:10503000F8A94A49C992C8925600720BD6F88989D4
:105040002425699D06730AD6F8A9533C27434E745C
:105050000BD6F8D370C8D252A613750DD6F889595D
:1050600092255912597218760DD6F88959924549E8
:1050700096843905770CD6F8895992257D4A7202B3
:10508000780DD6F8895994849528CB6100790ED68D
:10509000F88959922591254DB268027A0BD6F88984
:1050A00083D838E830007B0CD6F8212DCEE430D6FA
:1050B00061007C09D6F891B4EF14007D0BD6F8E5B9
:1050C00030D6E24CA7007E0AD6F8A3A453CE1B002C
:1050D000A007D6F8F92300A10AD6F8911C4CBB53BF
:1050E00000A20FD6F8F170486A49968443964300AF
:1050F000A30DD6F8112D2A8E6994243A01A40DD659
:10510000F88959B425D994E53000A50ED6B8B32452
:105110008B92301BB4B40E01A60BD6F891B40EA638
:10512000750A00A70DD6F8A7748BB2285BA31D01E2
:10513000A807D678EAFC01A90CD6F8A72C699192A9
:105140006ED14EAA0DD6F891A9454B7264C8A9003C
:10515000AB0ED6F8C9511225511665518E02AC0915
:10516000D6F81987346704AD09D6F819879C1B0057
:10517000AE0ED6F8A72C59122991922CDA09AF0855
:10518000D638069D9F01B00AD6F8913009731E01EA
:10519000B10CD6F8F1341BB4341B7418B20BD6B86A
:1051A000B4282C0E393700B30AD678E64C8E768EAA
:1051B00000B408D6F8C29C9F00B50FD6F889599262
:1051C0002559222589948300B610D6F8876449961C
:1051D00048C9922CC9921C06B708D6F85973AE007C
:1051E000B808D6F8F929CC00B909D6B842B5B873D1
:1051F00004BA0CD6F8112D6AD3A121A702BB0DD693
:10520000F889511665511225514EBC0DD67842B51C
:1052100038855A120D690CBD0DD67842B5B884494F
:105220001A863300BE0ED638E430CEA4504BA221ED
:10523000CD01BF0BD6F8911C4CC35AB413C00FD686
:1052400078E270CA922C19942CC97218C10FD6F842
:10525000C270CA922C19942CC97218C210D6B8C246
:10526000249BB2244B06254BB21C06C311D678A250
:1052700024D1A62CC99241C9922C8701C410D6789A
:10528000EAD094255932285992E53000C510D6B895
:10529000C2249BB2244B06254BB21C06C60ED6F880
:1052A000912129350D43D4B4A300C70BD6F8A72C00
:1052B00049DBA2B108C80ED678C24149D3214AD3EE
:1052C000418701C90ED6F8A24149D3214AD341876B
:1052D00001CA0ED6B8B24149D3214AD3418701CB86
:1052E0000ED6784A8392A64394A6830E03CC0AD6A0
:1052F00078E2704C1B7702CD0AD6F8C2704C1B774F
:1053000002CE0BD6B8C2241BD3C69D00CF0AD678D6
:10531000EAD09836EE04D00CD6B8872C6A59A22E63
:10532000434ED111D6B8922889B2444A3A295992AB
:10533000E53000D20ED678E270CA922CC9922CDAEF
:1053400009D30ED6F8C270CA922CC9922CDA09D4AD
:105350000FD6B8C2249BB2244BB2248B7602D51050
:10536000D6B89228C9A62CC9922CC9A29D00D60EE7
:10537000D678EAD0942559922559B413D70DD6F88A
:10538000895994849528CB6100D80ED6F8A748890E
:1053900094162991A29D00D90ED678E2AC92255997
:1053A000922559B413DA0ED6F8C2AC92255992253B
:1053B00059B413DB0FD6B8C22447B2244BB2248BA6
:1053C0007602DC0FD678EA4896644996644916ED71
:1053D00004DD0DD6F8C2AC92454998D62900DE0D01
:1053E000D6B8D321CA92214AEB3400DF0ED6F8A7F3
:1053F0002C892A59544B129D00E00ED678E21C9B52
:10540000A321C9A2218701E10ED6F8C21C9BA321CA
:10541000C9A2218701E20FD6B8C22487E66848B244
:1054200068C86100E30FD6B89228C9A1391A922C36
:105430001A7218E40ED6F8931C9AA321C9A22187E8
:1054400001E50FD6B8C2240CE76848B268C861000D
:10545000E60DD6F8A9439824C3940D3A0AE70CD672
:10546000F8A95396A459341601E80DD678E21C9B8E
:10547000B26450E29D00E90DD6F8C21C9BB26450A4
:10548000E29D00EA0DD6B8C22487A62C199478278D
:10549000EB0DD6F8931C9AB26450E29D00EC0AD64C
:1054A00078E21C531B7702ED0AD6B8C21C541B7756
:1054B00002EE0BD6B8C22487D4C69D00EF0AD6F8F8
:1054C000931C521B7702F00CD6B86D5396644916A4
:1054D000ED04F111D6B89228C9914492922CC99248
:1054E0002C8701F20DD678E21C9BB2244BB26827C0
:1054F000F30DD6F8C21C9BB2244BB26827F40ED62B
:10550000B8C22487A62CC9922CDA09F50FD6B89216
:1055100028C9A1294BB2248B7602F60DD6F8931C2C
:105520009AB2244BB26827F70AD6F8F11C1A7428ED
:1055300067F80DD6F8A94312292D5232E404F90F69
:10554000D678E21CCA922CC992C892C300FA0FD630
:10555000F8C21CCA922CC992C892C300FB10D6B8DC
:10556000C22447B2244BB224B2E43000FC0FD6F878
:10557000931CC9922CC992C892C300FD0FD6F8A102
:1055800030AB64496449932C9A00FE0FD6F8D1746D
:1055900088B2244BB26488D214FF10D6F8931CC989
:1055A000922C892C699245130000000004FFFF0033
:1055B000005F0003020304030505080D00FE09FE59
:1055C0000900017202EC044A2005006E0C2107C993
:1055D000438C431222071C5B8CC814230EBE469CCE
:1055E000A86558A26458A21600240FCD42AC6C5096
:1055F000A224DB922819B4082510CE429C4C899233
:10560000284CC35225D11200260DBE421C2D6AD350
:10561000A2448B96002706995B8C01280BCB43ACE8
:10562000244AA25A9405290C4B438C2CCAA24A94B2
:1056300044002A0CAE529C289386498B12002B0AF8
:10564000AD4AAC301AA430022C089C3E9C45C900DF
:105650002D068D528C412E081B3F9C6449002F095A
:105660004F42EC6A9F6300300DCE422C2D4A428F90
:1056700049944900310BCD42AC4C4AC29E060132DE
:105680000ECE429C2109C534CCB4301D06330DCE5C
:10569000428C6B589C53311912003410CE42CC50BE
:1056A0004BA24A9664C930A60900350ECE428C43FF
:1056B0005A59B43415932101360ECE42AC294C2BE5
:1056C0008B268AC99000370CCE428C6B580DD33094
:1056D0000D01380FCE429C21098DC99084C66448C3
:1056E00000390DCE429C21096DCA9216A3093A0BCE
:1056F000433F9C64C9916449003B0BC43EAC68CAFB
:10570000B145C9003C084D43CCAC6B073D08A64AE7
:105710008C3B3A0C3E09CD428CB45B47003F0DCE2A
:10572000429C2109C534ACE660044010CE429C2165
:10573000094D431229C994C84302410DCE422C2D74
:105740004A42E33088C6004212CE428C21CA9250AF
:105750004B86284B422D192200430CCE429C210936
:10576000D51E932101440DCE428C21CA92D0B7643C
:105770008800450CCE428C435A1DA2B43A0C460B0D
:10578000CE428C435A1DA2B415470DCE429C21092E
:10579000D5A621D49425480BCE428CD0711844C78D
:1057A00000490ACD428C410AFB34084A0BCF42AC77
:1057B000418C7BCAB20D4B10CE428C504BA24A2674
:1057C0002659544BC2004C09CE428CB45F87014D20
:1057D0000E4F428C54DD968A1449916A0D4E0DCEBF
:1057E000428C50DC94484AB4D1184F0CCE429C21D4
:1057F00009FD980C0900500CCE428C41098DC392D2
:10580000B602510ED63E9C21097D89A42419E200DE
:10581000520ECE428C41098DC3528B6A4918530FE8
:10582000CE429C2109D578885331191200540A4F71
:10583000428C4316F71B00550ACE428CD01F932191
:105840000156114F428C544DB2288BB24A9884496C
:105850009A01570E4F428CD453244552A4744B00E6
:10586000580E4F428C544DB24A5AC92AA91A590CA3
:105870004F428C544DB24A1A77035A0ACE428C6B6F
:10588000D86B3A0C5B094C438C41EBDB105C094F45
:10589000428C38EF73005D09CC428C21EBDB205E3B
:1058A000089D5AAC2CA9055F070F3E8C430060068B
:1058B00092638C28610CB6429C214E86515396000F
:1058C000620DCE428CB465D14471531600630CB6A0
:1058D000429C2109D562322400640BCE42DC9645FD
:1058E0001B6DCA12650DB6429C210987410D93219B
:1058F00001660DCE42AC294BD27090D24600670FA4
:10590000C63A9C454BB2688A87244C8604680BCE05
:10591000428CB465D144C700690AC542AC1C113B36
:105920000D026A0CD53ACC1C111B352D59006B0E9B
:10593000CE428CB42D89A22DAA2561006C09CD42DE
:105940001CB19F06016D0E37428C45892229922297
:105950002952036E0AB6428C64D144C7006F0BB65D
:10596000429C21091D932101700DC63A8C64D1C45B
:105970004D59D22A00710BC63A9C451B3565491B0F
:10598000720AB6428C64CA92B411730DB6429C215D
:1059900009135909932101740CC6429C341CA4B408
:1059A0002D5A00750EB6428C2CC9922CC9922C5AD5
:1059B00002760BB5428CCC9694922C02770C37422F
:1059C0008CD4144991D22D01780CB6428C30893296
:1059D000518B9230790DC63A8CD04D5952311912F3
:1059E000007A08B6428C63C7617B0C4D43AC254CF2
:1059F00023350BD3017C06C9438C077D0CCD428C2B
:105A000035CC52290D93097E099D5A9C4849A4041E
:105A100000000004FFFF00000939000811390008E8
:105A20004B3400081815AF19FF1815AE19FF1815DB
:105A3000A115C819FF1815A015C019FF1815A11533
:105A4000C019FF1815A015C819FF1815AE15D516E1
:105A50008015A8163F15D316001540158D16141580
:105A600020160015A115C815DA1612158116CF15C6
:105A7000D916F115DB1640152E15A415A619FF1819
:105A800015AE15D5168015A8163F15D3160015406E
:105A9000158D16141520160015A115C815DA161245
:105AA000158116EF15D916A115DB1600152E15A4B4
:105AB00015A619FF1815AE15D5168015A8163F1591
:105AC000D316001540158D16141520160015A115B6
:105AD000C815DA1602158116CF15D916F115DB1681
:105AE00040152E15A415A619FF1815AE15A415D529
:105AF000165015A8163F15D31600154015AD168B78
:105B000015D9162215DB16351532158116FF15A687
:105B100015DA161219FF1815AE15D5168015A81628
:105B20003F15D316001540158D16141520160015B7
:105B3000A115C015DA1612158116CF15D916F11553
:105B4000DB1640152E15A415A619FF000001140A36
:105B50006464323200127A000004289610080000B3
:105B6000800040000001140A6464323200093D00E4
:105B7000000428961008020280004000005EBCE28B
:105B8000613FDD83C29C7E20A3FD1F419DC3217F19
:105B9000FCA2401E5F01E3BD3E6082DC237D9FC10D
:105BA000421CFEA0E1BF5D0380DE3C62BEE0025C01
:105BB000DF81633D7C22C09E1D43A1FF4618FAA4ED
:105BC00027799BC584DA3866E5BB5907DB856739D9
:105BD000BAE406581947A5FB7826C49A653BD987CD
:105BE000045AB8E6A7F91B45C6987A24F8A6441AC1
:105BF00099C7257B3A6486D85B05E7B98CD2306EAD
:105C0000EDB3510F4E10F2AC2F7193CD114FADF398
:105C1000702ECC92D38D6F31B2EC0E50AFF1134D8C
:105C2000CE90722C6D33D18F0C52B0EE326C8ED080
:105C3000530DEFB1F0AE4C1291CF2D73CA9476286C
:105C4000ABF517490856B4EA6937D58B5709EBB558
:105C500036688AD495CB2977F4AA4816E9B7550B4C
:105C600088D6346A2B7597C94A14F6A8742AC89640
:105C7000154BA9F7B6E80A54D7896B350000000028
:105C80000000000000000000000000000000000014
:105C90000000000000000000000000000100000003
:105CA00002000000030000000400000006000000E5
:105CB000070000000800000009000000DC5C00088C
:105CC000000000203C000000542B0008185D000874
:105CD0003C0000209C0C0000642B00080000000029
:105CE00000000000010000000400000000000000AF
:105CF0000000000000FA0000FA06000006000000A4
:105D000000000000000000000024F400000000007B
:085D100000000000000000008B
:04000005080000B936
:00000001FF
