:020000040800F2
:100000002826002045010008A91C0008611A0008E4
:1000100000000000000000000000000000000000E0
:10002000000000000000000000000000A521000802
:100030000000000000000000030100087122000819
:100040005701000800000000570100085701000890
:100050005701000857010008570100085701000820
:10006000000000009D030008570100085701000828
:10007000D5010008570100085701000800000000E2
:1000800057010008570100085701000857010008F0
:1000900057010008570100085701000857010008E0
:1000A00057010008570100085701000857010008D0
:1000B00057010008570100080348854600F078F80A
:1000C00000480047611E000828260020084B1968D8
:1000D0000868203080F30988022080F31488BFF379
:1000E0006F8F3FBCAE4608BC04BC62B61847000028
:1000F00014000020EFF3108072B6704780F3108870
:100100007047EFF309800E4B1A6820381060F0C07A
:1001100044464D4656465F46F0C008B572B602F0FA
:1001200065F862B60CBC116808681030F0C8A046CB
:10013000A946B246BB4680F309882038F0C8184764
:10014000140000200448804704480047FEE7FEE70B
:10015000FEE7FEE7FEE7FEE7ED1D0008B900000838
:1001600030B50B46014600202022012409E00D464F
:10017000D5409D4205D31D469540491B25469540D7
:1001800040191546521E002DF1DC30BDD2B201E0FF
:100190000270401C491EFBD270470022F6E710B5E2
:1001A00013460A4604461946FFF7F0FF204610BDE5
:1001B000064C0125064E05E0E36807CC2B430C3CBA
:1001C00098471034B442F7D3FFF77AFF2025000890
:1001D0004025000810B5024800F0A4FA10BD000048
:1001E0007000002010B5846AA16D502211420DD11B
:1001F000A06D012149020843A065206801F039FC87
:1002000000281BD0A07E002807D017E0A16DC906EA
:1002100024D5204600F084FA10BD20680168090743
:100220000CD501F022FC0146012000290AD0A16D65
:1002300020221143A165E16D0143E165204600F0F4
:100240006DFA10BD21684A680C239A434A60A16D7B
:10025000FF22013291430143A165EFE7216D496B14
:10026000884710BD10B5806A816D402211438165B9
:10027000C16D04221143C16500F052FA10BD10B5E2
:10028000806A00F04CFA10BDF8B504460068816839
:100290008907CD0F01F0E5FB002826D0002D24D1E1
:1002A000206881680522114010250126012910D1FE
:1002B00081680F4A1140891C816021680320086011
:1002C00000F058FE07460CE000F054FEC01B022868
:1002D00007D9A06D2843A065E06D3043E06501209B
:1002E000F8BD20688068C007EED10020F8BD00008E
:1002F000E8FFFF7FF8B5044600200090206801F079
:10030000B0FB002840D120688168204A10261140A7
:1003100000292BD18168D5432940491C81601C48A4
:10032000006807218905084000020AD51A481949C2
:100330000068FFF715FF401C00E0401E00900028F9
:10034000FBD1607E01281FD000F014FE074616E0A6
:1003500001F087FB002804D1206881682940491CEE
:10036000816000F007FEC01B022808D9A06D304351
:10037000A065E06D01210843E0650846F8BD2068EE
:100380000168C943C907E3D10020F8BD1700008008
:1003900008270140400D03001000002010B502485E
:1003A00000F040FC10BD0000D400002010B5044651
:1003B000006C09498008800040186064207814218E
:1003C0000838FFF7CDFE04498031A164C106C90E8B
:1003D00001208840E06410BD000802400179084B0C
:1003E0008906890E8A00D2180265054A4432491EE0
:1003F00042658A07920F0121914081657047000094
:10040000FC080240F0B5846CC56C6560046D002C7E
:1004100002D0446D856D65600B4C6568066C1C27C9
:100420003E400127B7403D436560046863608368D0
:10043000102B036803D099600068C260F0BD9A6019
:100440000068C160F0BD00000000024072B6FEE727
:10045000F8B500260546044640350096287D01285B
:100460000ED0012028752046FFF70EFF02462068B7
:100470008168C907C90F05D0A06D1021084330E07D
:100480000220F8BDA16DFF230133994302231943D4
:10049000A165C168C3688907890F9B089B00C36079
:1004A000206883680127FF073B4383600F4B206868
:1004B0000DE0009F7F1C00979F4208D3A06D022192
:1004C000884310210843A0652E750120F8BD876878
:1004D000FF0FEED1C3680B43C360A06D800880009E
:1004E000401CA0652E751046F8BD000000F2020009
:1004F0007047704770477047F8B5002706460446B6
:1005000040360097307D0D4601280FD00120307510
:10051000206801F0AAFA00280AD0A06D2021084323
:10052000A0650127002030753846F8BD0220F8BDCF
:10053000686802287ED001222169D207914202D048
:10054000121D914206D120682968826A4903490B2D
:100550000A436EE0C206D20E0F20216E9040814306
:100560002868430302D0C3074BD102E04000C00E0D
:1005700048E0830701D5012044E0430701D502206C
:1005800040E0030701D503203CE0C30601D5042069
:1005900038E0830601D5052034E0430601D5062066
:1005A00030E0030601D507202CE0C30501D5082063
:1005B00028E0830501D5092024E0430501D50A2060
:1005C00020E0030501D50B201CE0C30401D50C205D
:1005D00018E0830401D50D2014E0430401D50E205A
:1005E00010E0030401D50F200CE0C30301D5102057
:1005F00008E0830301D5112004E0400301D5122057
:1006000000E000209040014321666968E2698808A3
:10061000401C904210D820682B68826A9C46C9060C
:10062000C90E0F238B409A4363469B001B0F8B40E0
:100630001A4300E03BE082622168AB6828684A699F
:100640000002824318404001400902434A61286881
:10065000002800DB66E72B4A116807239B05194039
:10066000294B984214D10B0212D4C0020143104608
:1006700001F007FA264825490068FFF771FD0C21B3
:100680004843401C00E0401E00900028FBD149E791
:10069000204B984203D1CB0101D4800205E01E4BD0
:1006A0009842D7D14802D5D45802014325E0012110
:1006B0002069C907884202D0091D884206D12068F6
:1006C0002968826A4903490B8A43826228680028A4
:1006D000C0DA0C4A116807239B0519400A4B98425F
:1006E00001D1C00208E00B4B984201D1800203E027
:1006F000094B9842AED140028143104601F0C1F946
:1007000010E7000008270140001000B0400D030072
:1007100010000020004000B8002000B4704770476F
:1007200070470000F8B50446006806684568B007E1
:100730000FD5A8070DD5A06DC00604D4A06D01216A
:10074000C9020843A0652046FFF7D3FE21680220B6
:100750000860474F700701D5680703D4300728D5D4
:10076000280726D5A06DC00604D4A06D012149023A
:100770000843A065206801F07CF9002813D0A07E12
:10078000002810D12068016809070CD501F06DF927
:1007900001460120002960D0A16D20221143A165EE
:1007A000E16D0143E1652046FFF7B8FF21680C20A9
:1007B000086030060CD528060AD5A06D0121090471
:1007C0000843A065204600F07BF92168802008607E
:1007D000F0050BD5E80509D5A06D012149040843B2
:1007E000A0652046FFF786FE20680760B0050DD59E
:1007F000A8050BD5A06D012189040843A0652046FA
:10080000FFF779FE0120216840020860F00618D544
:10081000E80616D5206B002804D02068C068800741
:10082000800F0BD0A06D012189020843A065E06D07
:1008300002210843E0652046FFF772FF216810207F
:100840000860B00408D5A80406D52046FFF750FE7E
:100850000120216840030860F8BD21684A680C2324
:100860009A434A60A16DB9430143A1659BE700002B
:1008700000010000FEB5002704463E4601970097A0
:10088000002803D0A06D002802D008E00120FEBDA2
:10089000204600F017F90020E06554210855206833
:1008A0008168C900C90F11D181687C4A11400122B9
:1008B0001207114381607B4879490068FFF750FCBB
:1008C000400000E0401E00900028FBD120688168B5
:1008D000C900C90F08D1A16D10221143A165E16DB6
:1008E00001221143E165174601F0BFF8A16DC90669
:1008F00001D4002804D0A06D10210843A065CAE0EF
:10090000A06DFF210131884302210843A0652068C2
:1009100001F0A7F801462046203000292FD1226897
:10092000D16818239943A3681943D160626C216C84
:10093000636811439B0FA26C9B071A431143E26C3F
:1009400011430E43017F012900D10E432268116932
:10095000554B19403143116103226168920791425E
:100960000DD05A0791420AD05200914207D04F4D04
:10097000AB680F229204934311400B43AB60217E7E
:100980008D03617EC9030D43A17E4A031543226B8B
:10099000002A01D0012212031543E268154322699F
:1009A000002A02DA5200520801E0012252051543E2
:1009B000027B007852001543019A1543012809D1A2
:1009C000002955D0A06D20210843A065E06D0121CC
:1009D0000843E065606A002806D0FF22C13210405B
:1009E000A16A28430D4605432168C868304A104073
:1009F0002843C860216808692E4A104030430861C6
:100A00000021626B206801F043F82B49A26B20683B
:100A100001F03EF80F212069C94300282CD00122A3
:100A20005205904216D1226E002083001646DE4009
:100A3000F3431B0702D0401C0828F6D301281BD023
:100A40002068836A237F9B001B1FDB06DB0E994017
:100A5000114381622068C06818490840A84210D13B
:100A60000020E065A06D80088000401CA06513E0B8
:100A7000012000040543ADE72068826A0A438262D0
:100A8000E8E7A06D0221884310210843A065E06DCE
:100A900001210843E06501273846FEBDE8FFFF7FDE
:100AA000400D03001000002002FCFF1F0027014042
:100AB0001902FEFF02FCFFDF04FFFF07E7FF3F8391
:100AC0007047000070B586B0054614216846FFF7F0
:100AD00064FB2349286888423FD1224802680121EB
:100AE00009050A4302600068084005901D48403827
:100AF000416B012211434163406B00261040059079
:100B00000620009003200190052069460296000708
:100B100000F07CF9154C14482060A6600520E660C2
:100B2000606080202061400060618000A061202022
:100B3000E061032000032062204600F0CFF8002887
:100B400001D0FFF783FC2C65002211460C20A56222
:100B500000F074FA0C2000F065FA06B070BD0000D9
:100B6000002401404010024008000240D400002050
:100B7000F7B50446006800F078FF002845D1254607
:100B80004035287D012840D001272F752068C16895
:100B90001F4EC9070CD100F064FF002804D0206864
:100BA00081683140891C81602068C1683943C16017
:100BB0002046FFF79FFB002826D1A06D154908406D
:100BC000FF2101310843A0650020E065226D124934
:100BD000D162226D11491163226D1149516322685E
:100BE0001C21116028752068416810221143416062
:100BF0002168206D4031029B019A00F0C1F8216804
:100C00008A683240121D8A60FEBD0220FEBD0000CF
:100C1000E8FFFF7FFEF1FFFFE50100087F0200080B
:100C200065020008F0B42C490C6802681368056C72
:100C30001C273D400426AE40264211D05E070FD54A
:100C400013689B0603D4146804239C4314604B6808
:100C5000046C04223C40A24013434B60016B1CE037
:100C60000227AF40064627402036002F19D09F07A5
:100C700017D513689B0605D413680A24A343136091
:100C8000012272714B68046C1C2214400222A240A3
:100C900013434B6000213171C16A00291AD0F0BCA6
:100CA00008470827AF40274214D01B0712D5136806
:100CB0000E24A34313604B68046C1C2214400122D1
:100CC0001546A5402B434B60C26372710021317100
:100CD000416BE2E7F0BC70470000024070B50400D1
:100CE0003FD02548256814212818FFF739FA8000DD
:100CF0002064022026462036707128681F4908406B
:100D00002860E168A06862690843216911430843CB
:100D1000A1690843E1690843216A084321680A6818
:100D2000104308602046FFF741FB0121A0688903BA
:100D30000025884200D165602079616C8006800EB4
:100D40000860A06CE16C41606068401E03280AD80E
:100D50002046FFF743FB206D0560606DA16D41608B
:100D600004E0012070BD25656565A565E56301208A
:100D700070713571002070BDF8FFFDBF0F80FFFF5F
:100D8000F8B504468C4620300179002501290BD0A6
:100D90000126067141790027012907D08021E163EE
:100DA000077101252846F8BD0220F8BD02214171D6
:100DB000E7632068016849084900016061462046F0
:100DC000FFF720FB206B00282068016801D00E226D
:100DD00005E0042291430160206801680A22114362
:100DE0000160606C0168CA03074902D502680A43C2
:100DF0000260206D002802D002680A430260206869
:100E0000016831430160CDE700010000FCB500231B
:100E100001259AE022462C469C4022406FD04E6825
:100E2000012E05D0022E03D0112E01D0122E16D184
:100E300086680327B4465E00B646B7406646BE43A2
:100E4000B446CF687646B740664637438760466803
:100E5000A6430C79E406E40F9C4034434460C66822
:100E60005F000324BC40A446A6438C68BC403443C6
:100E7000C4604C68022C01D0122C14D1DC08A400F0
:100E800024180194266A5C07B646E60E0F24B44087
:100E900000967646A643B6460C69009EB440764658
:100EA0002643019C266204686646B4430E79B60761
:100EB000B60FBE40264306604C68E40044D59E0849
:100EC000254CB6003419A446246E9E07F60E0F2753
:100ED000B740BC4305273F07B84201D1002710E0C7
:100EE0001E4FB84201D101270BE01D4FB84201D17E
:100EF000022706E01B4FB84202D1032701E023E09E
:100F00000527B740274364462766134E803634686A
:100F10004F689443FF0300D51443346074684F68EE
:100F20009443BF0300D5144374600B4C26684F688C
:100F30009643FF0200D51643266066684F689643C5
:100F4000BF0200D5164366605B1C0A681446DA408F
:100F500000D05FE7FCBD0000001802400004005014
:100F600000080050000C0050002A01D08161704739
:100F700081627047014880687047000004000020CB
:100F800010B508480024016882151143016020460D
:100F900000F00AF8002801D0012401E000F028F850
:100FA000204610BD0020024070B50F4E002431785D
:100FB0000546002915D07D20C000FFF7D1F8014675
:100FC0000A480068FFF7CCF800F032FD002808D18D
:100FD000042D06D200222946401E00F02FF875602D
:100FE00000E00124204670BD040000201000002015
:100FF00008B50B48016801221143016000681040E8
:10100000009007484038C26B01040A43C263C06BBA
:10101000084000900320400200F000FD08BD0000E1
:1010200040100240002805DBC106C90E012088409F
:10103000014908607047000000E100E010B500F0D1
:10104000DDFE10BD10B50F4C216803225202914302
:1010500001432160C11FFF39FA390ED10A48062128
:10106000006848430949FFF77BF8401C02E000286C
:1010700005D0401E61694905F9D4002010BD032048
:1010800010BD0000007000401000002040420F0022
:10109000F8B5044600680026524D800358D55148E3
:1010A00000274038C06BC00009D44E484038C26B9E
:1010B00001040A43C263C06B0840012700904A48FC
:1010C0000168821511430160FFF754FF009005E0AD
:1010D000FFF750FF0099401A022825D842480068BF
:1010E000C005F5D5E8690321090208400FD0A169C0
:1010F00081420CD0E86903210902EA698843012191
:1011000009040A43EA61EA698A43EA61E861C007BF
:101110000FD0FFF72FFF009008E0FFF72BFF00999B
:10112000411A3248814201D9032609E0E869800763
:10113000F3D5E869032109028843A1690843E861FE
:10114000002F05D027484038C16B02049143C1638A
:101150002078C00705D0686961688008800008436E
:1011600068612078800705D568690C218843A168EB
:10117000084368612078800606D568690321090361
:101180008843E168084368612088400411D5686994
:1011900061698000800808436861012160698907EE
:1011A000884206D10F484038C16801221204114319
:1011B000C1602088000512D568690321890388432E
:1011C000216908436861012120698903884206D1A9
:1011D00004484038C168012212041143C1603046FE
:1011E000F8BD00004010024000700040881300006D
:1011F000F8B50F46060043D04D4D28684007400F14
:10120000B84213D22868C008C00038432860FFF7EE
:10121000B1FE044605E0FFF7ADFE011B45488142E3
:1012200061D828684007400FB842F4D13068424C7A
:1012300081070DD5400704D5A0680721090308439D
:10124000A060A0680F2109028843B1680843A0602C
:101250003078C00732D0706801280AD002280BD03D
:1012600000280FD03449403103280ED0C9698907BE
:1012700004E02168890301E021688901002906DB77
:101280000120F8BD21684905F8E7096AEFE7A16880
:10129000C908C9000143A160FFF76CFE009006E099
:1012A000FFF768FE0099411A224881421BD8A068C6
:1012B000382108407168C9008842F1D12868400788
:1012C000400FB84217D91A480168C908C900394304
:1012D0000160FFF74FFE054607E0FFF74BFE411B9D
:1012E0001448814201D90320F8BD11480068400725
:1012F000400FB842F1D13078400706D5A0680721E9
:1013000009038843F1680843A06000F01DF8A16854
:101310003C2289091140094A515CC906C90EC840DE
:101320000749086007480068FFF73EFEF8BD000067
:10133000002002408813000000100240E024000852
:10134000100000200800002010B5204CA068204AA2
:101350008006400F16D0A0688006410F501001296A
:101360000FD0A1688906490F022912D0A068800613
:10137000400F042823D0A0688006400F032821D006
:10138000002010BD206801218004400F81401046DC
:1013900012E0E1688B07E1689B0F4906490F491C81
:1013A000032B00D01046FEF7DBFEE1684904490E2E
:1013B0004843E168490F491CFEF7D2FE10BD0120E9
:1013C000C00310BD7D20000210BD000000100240CF
:1013D0000024F400F8B504007ED020783827C00738
:1013E000EB4D002846D0A868E96838408907890F86
:1013F000102802D008280BD001E0032908D00120D2
:101400006268000482420AD129680143296015E01C
:10141000286880032ED560680028DDD02AE00523E7
:1014200001211B0489049A422A6802D10A432A60D6
:10143000EAE782432A6028688843286060680028B9
:101440000CD0FFF797FD064604E0FFF793FD801BE5
:10145000642873D828688003F7D50BE0FFF78AFD6E
:10146000064604E0FFF786FD801B6428F1D8286853
:101470008003F7D42078800769D5A868E9683840E8
:101480008A070721920FC902102802D0002813D022
:1014900001E0022A10D0E068002846D0286888437E
:1014A0002169084328602868FF210131084328602A
:1014B000FFF760FD06462CE02A68520502D5E26877
:1014C000002A89D06A687F231B029A4363691B0242
:1014D0001A436A60002800E08DE00ED12868884336
:1014E000216908432860286801218004400F814059
:1014F000A848FEF735FEA8490860A8480068FFF72D
:1015000053FD002877D122E0FFF734FD801B02282D
:101510009FD828684005F7D568687F21090288436D
:10152000616909020843686011E02968FF20013001
:1015300081432960FFF71EFD064605E098E0FFF7AE
:1015400019FD801B022884D828684005F7D420782C
:10155000934E00072ED5A8688006400F03280AD0B6
:10156000A0690028306A16D0012108433062FFF7D5
:1015700001FD07460BE0306A80071BD5A0690028F3
:101580009FD017E0FFF7F6FCC01B022870D8306A26
:101590008007F7D50EE0400840003062FFF7EAFC14
:1015A000074604E0FFF7E6FCC01B022860D8306A5B
:1015B0008007F7D4207840076CD5A86800278006FC
:1015C000400F042818D0E86BC00008D4E96B012054
:1015D00000070143E963E96B01400127009171486D
:1015E0000168C90519D40168821511430160FFF72C
:1015F000C1FC00900DE083E0F06980074AD5A06847
:1016000000287DD046E0FFF7B5FC0099401A02287B
:101610002ED864480068C005F5D5A168012910D00E
:1016200004200529F16911D049084900F161F169E7
:101630008143F161A068002816D0FFF79BFC009061
:101640000EE0F06901210843F061F3E70143F16125
:10165000F7E7FFF78FFC0099411A534881426DD894
:10166000F0698007F5D50EE0FFF784FC009007E0F5
:1016700064E0FFF77FFC0099411A4B4881425DD836
:10168000F0698007F5D4002F04D0E96B0120000732
:101690008143E963E069002877D0A9688906490F8A
:1016A000022951D001263606022828680DD0B04301
:1016B0002860E86880088000E860E8683B490840E6
:1016C000E860FFF757FC04463AE0B0432860FFF7B4
:1016D00051FC074604E0FFF74DFCC01B02282DD843
:1016E00028688001F7D4616A206AA26A0843E16A27
:1016F000120211430843216B0843E9682C4A00E0B9
:1017000041E011400843E860286830432860E868F9
:10171000012109070843E860FFF72CFC044604E0B8
:10172000FFF728FC001B022808D828688001F7D59D
:101730002BE0FFF71FFC001B022801D90320F8BD96
:1017400028688001F5D420E00128F8D0E868226AF2
:101750008107890F914216D17021626A014091423E
:1017600011D17F21A26A09020140120291420AD1DD
:101770001F214904E26A0140914204D1400F216BCC
:101780004007884201D00120F8BD0020F8BD0000CC
:10179000001002400024F400100000200800002087
:1017A000401002400070004088130000FFFFFEEF71
:1017B0008C80C11F70B504460120002C49D02546FD
:1017C0002035687A002806D128721120C002606096
:1017D000204600F041F8022068722168CA20486261
:1017E000216853204862204600F06BFA002829D176
:1017F00020688169174A1140816121688869A2685F
:10180000E369104362691A431043886121682069C3
:10181000086120680169A289120411430161204610
:1018200000F072FA00280DD121688A69D200D2082E
:101830008A6122689169636AA6691943236A3343FE
:10184000194391612268FF215162002801D10121D1
:10185000697270BDBFFF8FFB08B5006809498842F7
:101860000ED10948C1690122D2031143C161064862
:101870004038C26B01150A43C263C06B0840009038
:1018800008BD00000028004040100240F8B50646A0
:1018900005462036307A0B4601280FD001273772D3
:1018A00002207072002A0BD0D8789C780004044380
:1018B0005878097800024903084317E00220F8BD70
:1018C0005878C10603D5EF2108400A305870D878FF
:1018D00000F0EBF90404587800F0E7F90002044343
:1018E000987800F0E2F9044318784003044329682B
:1018F000CA204862296853204862284600F0E1F96E
:10190000002806D10748044028684460284600F0B3
:10191000FBF92A68FF215162002800D1777200216B
:101920003172F8BD3FFFFF00F7B506460546203689
:10193000307A0C46012810D00120307202207072DB
:101940002968CA204862296853204862284600F066
:10195000B8F90027002802D027E00220FEBD029837
:1019600000282868806926D0400600D4E7702078D7
:10197000A378000403436078E178000289050843F6
:1019800003431848034028680360286881690122DE
:101990009204914381612169E068084329688A695A
:1019A00010438861284600F0AFF92A68FF21516290
:1019B000002813D014E0400600D4E770207800F02F
:1019C00074F90304607800F070F900020343A07812
:1019D00000F06BF90343E0788005D1E701217172D3
:1019E0003772FEBD7F7F7F0070B504460068C16816
:1019F000A0229143C160FFF7BDFA7D260546F6009F
:101A000006E0FFF7B7FA401BB04201D9032070BDD2
:101A10002068C0688006F4D5002070BD03490A68BC
:101A200003235B029A4302430A60704700000140AF
:101A3000094910B5401E884201D9012010BD074C4C
:101A400060610321081F00F0D9F90020A061072080
:101A50002061002010BD0000FFFFFF0000E000E05B
:101A6000FEE78068C007C00F704780684007C00F5E
:101A70007047C0680005800F01D00020704701202A
:101A80007047026807239B059A430A430260704728
:101A900010B543690424214007248C40A3438A40A5
:101AA0001343436110BD00003EB50024204800945C
:101AB00001941E4902940160032184608904C4607A
:101AC00041600121042549054561016104764476A0
:101AD000012282760221C161014620310C704462EC
:101AE00084620A7306224263046382630C77C464CF
:101AF000FEF7C0FE002801D0FEF7A8FC0D480090BC
:101B00000194694602940A48FEF7F6FC002801D0C9
:101B1000FEF79CFC08480090694601950448FEF7D2
:101B2000EBFC002801D0FEF791FC3EBD00240140F3
:101B300070000020020000040400000808B50848F6
:101B4000816B012211438163806B10400022009061
:101B500011460920FFF772FA0920FFF763FA08BD62
:101B600000100240F0B587B014216846FEF715FB5F
:101B70002748426B20210A434263426B0A40059288
:101B8000416B012421434163416B21400591426B2C
:101B900002210A434263406B22460840059005201B
:101BA00021460007FFF7E0F90F26360301223146F0
:101BB0001848FFF7D9F96702002239461548FFF7A0
:101BC000D3F9002505200094029569460007039586
:101BD0000194FFF71BF90820009005206946019544
:101BE00002940007FFF712F903200390019469465D
:101BF000009602940748FFF709F9029569460548DF
:101C0000009703950194FFF701F907B0F0BD0000BC
:101C1000001002400004005010B586B01421684640
:101C2000FEF7BBFA00241F4805941D49846001603B
:101C30007F21C16044618461FF21C4610161012190
:101C4000890744620162FFF7B5FD002801D0FEF765
:101C5000FDFB0821684601703021417084700194B9
:101C60000394012269460F480494FFF75DFE0028A3
:101C700001D0FEF7EBFB0521684601751221417585
:101C8000292181752321C175012205A90548FFF786
:101C9000FDFD002801D0FEF7D9FB06B010BD000005
:101CA0000028004030010020FEE70022014602E04B
:101CB0000A39C9B2521C0A29FAD21007000E084389
:101CC0007047F8B5044600680025C168490618D475
:101CD000C16880221143C160FFF74CF927460646D0
:101CE000203708E0FFF746F9811B7D20C0008142C4
:101CF00001D903257D722068C068400601D4032DF8
:101D0000F0D12846F8BD0000F8B5124C0026E16875
:101D100080229143E160A1690546890620350029AA
:101D200007DBFFF761FE002811D00320687206462A
:101D30000DE0A1692027B943A161FFF755FE0028F6
:101D400002D0032068720646A0693843A06130467D
:101D5000F8BD00000028004070B598B034216846F6
:101D6000FEF71BFA00241494159416941C210DA858
:101D70001794FEF712FA012676023046FFF762F951
:101D80000A200090701003904020059001200690DA
:101D900008200A90022580030B9007950003049405
:101DA0000C90089509946846FFF714FB002801D0B1
:101DB00072B6FEE707201490169402211595179429
:101DC00014A8FFF715FA002801D072B6FEE7092023
:101DD00080030D904004129013960DA8FFF758F958
:101DE000002801D072B6FEE718B070BD012002498C
:101DF000C00688607047000000ED00E08307FF2206
:101E0000DB0E9A408907090E9940002808DB8308F9
:101E100009489B001B1818689043084318607047D6
:101E20000007000F0838830804489B001B18D86976
:101E300090430843D861704700E400E000ED00E003
:101E400002E008C8121F08C1002AFAD17047704783
:101E5000002001E001C1121F002AFBD170470000E1
:101E60001CB5FFF78DF8FFF777FFFFF77BFEFFF755
:101E700065FEFFF719FEFFF7CFFE0C48FEF7E8FA04
:101E8000002801D072B6FEE7022209490748FEF792
:101E90006FFE0020009003460190C82205A109486A
:101EA00000F0F8F900F0CCF9FEE700007000002027
:101EB00000000020765461736B5F55706461746537
:101EC000000000003D220008F8B5054600F02EF99C
:101ED000304CA068401CA06020682F4F002803D021
:101EE0006069002827D02CE02560A068012828D14F
:101EF000002614207043C01900F00AF9761C052E44
:101F0000F7D32548643000F003F92348783000F017
:101F1000FFF821488C3000F0FBF81F48A03000F09B
:101F2000F7F81D48B43000F0F3F81B486430A063A4
:101F30001430E06305E02068E96AC06A884200D88E
:101F40002560606A401C6062E86A2169884200D9A5
:101F5000206114214843C0194068A8608168E96085
:101F60008268291D51608160E86A14214843C119C3
:101F700069613958491C395000F0E4F8606900285B
:101F800006D02068E96AC06A884201D200F01AF9D6
:101F9000F8BD0000140000205C010020FFB581B0F6
:101FA0000C9C9000236B001F1818C7080B9E0A9DFD
:101FB000FF0000290DD0002023180A5C20331A7579
:101FC0000A5C002A02D0401C1028F5D300214320CF
:101FD0000155052D00D30425201DE56200F0A3F86E
:101FE0002046183000F09FF824610520401B6462F1
:101FF000A0613846049A019900F07AF82060002E1A
:1020000000D0346005B0F0BD0648816B0968002936
:1020100004D0816BC9680968816270470021C94397
:10202000FAE700001400002072B6FEE7F8B5044697
:10203000002500F0D3F82B4A1746104651680837A0
:10204000103000290BD128490023C908C9000AC74C
:10205000264E48C0083841C10121083F5160002C7C
:102060003CD06107490F1023591ACB439C4235D805
:10207000631833D4002B31D01A490C68A3422DD8F1
:102080000A460832396801E00A4631464E689E42E7
:1020900002D20E68002EF7D181421FD01568086861
:1020A000106048680835C01A10280DD9CA18506049
:1020B0000C484B600830566800E0184603685F68BB
:1020C000B742FAD3136002604868064A231A1360C5
:1020D0000122D207104348600020086000F086F912
:1020E0002846F8BD580000202B020020F81F0000F1
:1020F00010B50124031F24061C601B1F1960191F43
:10210000024B0B60143940380A6010BD29200008CA
:102110000146083100224160D243C1608260016102
:1021200000210160704700210161704772B60448C8
:102130000168491C0160BFF34F8FBFF36F8F704779
:102140005400002003490868401E086000D162B6B0
:10215000704700005400002010B500281ED004462F
:10216000083C6068002819DA2168002916D140006F
:102170004008606000F032F80948616800E01046ED
:10218000026853688B42FAD3226004600448616895
:10219000083802688918016000F028F910BD0000B5
:1021A0006000002070470000044800210161816147
:1021B00003494161072101617047000000E000E030
:1021C000FFF900000120044900074860BFF34F8F6A
:1021D000BFF36F8F7047000000ED00E00248416BD5
:1021E000491C4163704700001400002010B51148DD
:1021F000416B002902D00121C16110BD0021C161E4
:1022000001690D4A00E0491E14234B43D358002BAB
:10221000F9D014234B439A18536814465B6808346A
:102220005360A34201D15B685360DA6802600161C8
:1022300010BD0000140000205C010020FEE700003B
:1022400010B50948016AFF22120411430162016AB4
:10225000120211430162FFF7A7FF04490020086042
:10226000FDF734FF002010BD00ED00E05400002019
:1022700010B5FDF73FFF044600F036F8002803D004
:1022800001200349000748602046FDF737FF10BDD5
:1022900000ED00E0FFB585B0164690000F9FFFF7F8
:1022A000C5FE05001DD04C20FFF7C0FE040015D070
:1022B0004C21FDF772FF256300210E9803910197D1
:1022C000009002943246089B06990598FFF766FE37
:1022D0002046FFF7F9FD012009B0F0BD2846FFF7C1
:1022E0003BFF0020C043F7E7F8B53E4C0026606B8B
:1022F000002804D0A069401CA0613046F8BDE56804
:102300006D1CE56008D1A06BE16BA163E063206AFE
:10231000401C2062FFF778FEA06A334F85420AD343
:10232000A06B0068002813D0A06BC068C168486823
:10233000854210D2A06220681421C06A48433858F0
:10234000012800D90126E0690028D6D00126D4E76B
:102350000020C043EEE78B684A69C8689860CB6884
:1023600088685860081D53688446634501D1CB686E
:10237000536000234B6113685B1E13608A6A002A56
:1023800011D0C8690B6A83600B6AC86958600B4634
:1023900050681833984201D10B6A536000238B6256
:1023A00013685B1E1360CA6A23699A4200D92261CE
:1023B00014235A43D01942688A609368CB609368AB
:1023C000604658609060C86A14225043C2194A613E
:1023D0003A58521C3A50C86A2168C96A88429FD943
:1023E00001269DE7140000205C010020F8B50024C0
:1023F0002646FFF79BFE384D686B401E6863686B8E
:10240000002864D1A868354B002846D15FE0D86821
:10241000C468E269216AA06A9160226AE169516038
:102420002146426818318A4201D1216A4160002266
:10243000A2620168491E0160A7686169E068B8602E
:10244000E768A06878604F68201D874201D1E7687F
:102450004F6062610A68521E0A60E16A2A6991420D
:1024600000D92961142251431C4A8C3A89184968C1
:10247000A1608F68E7608F6878608860E06A1421E7
:102480004843811861611158491C1150E06A29685C
:10249000C96A884201D30120E86118680028B6D1D2
:1024A000002C01D0FFF7B0FDAC69002C09D001274A
:1024B000FFF71AFF002800D0EF61641EF8D100205A
:1024C000A861E869002802D00126FFF77BFEFFF72C
:1024D00039FE3046F8BD000014000020E80100205D
:1024E00000000000000000000000000000000000EC
:1024F00000000000000000000000000000000000DC
:1025000001000000020000000300000004000000C1
:10251000060000000700000008000000090000009D
:10252000402500080000002070000000401E000848
:10253000B025000870000020B8250000501E0008DB
:102540000000000001000000040000000000000086
:102550000024F40000000000000000000000000063
:10256000000000000000000000000000000000006B
:10257000000000000000000000000000000000005B
:102580000000000004000000000000000000000047
:1025900000000000AAAAAAAAF81F0000000000007C
:1025A000000000000000000000000000000000002B
:04000005080000B936
:00000001FF
