:020000040800F2
:10000000001700204501000839280008A124000835
:1000100000000000000000000000000000000000E0
:10002000000000000000000000000000212B00087C
:10003000000000000000000003010008252B00085C
:100040005701000800000000570100085701000890
:100050005701000857010008570100085701000820
:1000600000000000DD0400085701000857010008E7
:100070005502000857010008570100080000000061
:100080005701000857010008F12B0008570100082C
:1000900057010008570100085701000857010008E0
:1000A00057010008570100085701000857010008D0
:1000B00057010008570100080348854600F0B8F8CA
:1000C00000480047A138000800170020084B1968B5
:1000D0000868203080F30988022080F31488BFF379
:1000E0006F8F3FBCAE4608BC04BC62B61847000028
:1000F00020000020EFF3108072B6704780F3108864
:100100007047EFF309800E4B1A6820381060F0C07A
:1001100044464D4656465F46F0C008B572B604F0F8
:1001200079FD62B60CBC116808681030F0C8A046B2
:10013000A946B246BB4680F309882038F0C8184764
:10014000200000200448804704480047FEE7FEE7FF
:10015000FEE7FEE7FEE7FEE7E12B0008B900000836
:1001600030B50B46014600202022012409E00D464F
:10017000D5409D4205D31D469540491B25469540D7
:1001800040191546521E002DF1DC30BD70B500241B
:100190002546002801DA01244042002901DA012520
:1001A0004942FFF7DDFFAC4200D04042002C00D0B6
:1001B000494270BD0549064A08685043054A8018FF
:1001C0000860400870470149086070478C000020B3
:1001D0006D4EC6413930000003460B439B0703D0E8
:1001E00009E008C9121F08C0042AFAD203E00B78FC
:1001F0000370401C491C521EF9D27047D2B201E074
:100200000270401C491EFBD270470022F6E710B571
:1002100013460A4604461946FFF7F0FF204610BD74
:10022000421C0178401C0029FBD1801A7047000055
:10023000064C0125064E05E0E36807CC2B430C3C39
:1002400098471034B442F7D3FFF73AFF1C6E00080A
:100250003C6E000810B5024800F0F0FC10BD000034
:10026000A401002010B5846AA16D502211420DD165
:10027000A06D012149020843A065206802F078F9C9
:1002800000281BD0A07E002807D017E0A16DC9066A
:1002900024D5204600F0D0FC10BD20680168090775
:1002A0000CD502F061F90146012000290AD0A16DA8
:1002B00020221143A165E16D0143E165204600F074
:1002C000B9FC10BD21684A680C239A434A60A16DAD
:1002D000FF22013291430143A165EFE7216D496B94
:1002E000884710BD10B5806A816D40221143816539
:1002F000C16D04221143C16500F09EFC10BD10B514
:10030000806A00F098FC10BDF8B50446006881686A
:100310008907CD0F02F024F9002826D0002D24D122
:10032000206881680522114010250126012910D17D
:1003300081680F4A1140891C816021680320086090
:1003400001F0BCF807460CE001F0B8F8C01B022829
:1003500007D9A06D2843A065E06D3043E06501201A
:10036000F8BD20688068C007EED10020F8BD00000D
:10037000E8FFFF7FF8B5044600200090206802F0F7
:10038000EFF8002840D120688168204A10261140EB
:1003900000292BD18168D5432940491C81601C4824
:1003A000006807218905084000020AD51A48194942
:1003B0000068FFF7D5FE401C00E0401E00900028BA
:1003C000FBD1607E01281FD001F078F8074616E0C7
:1003D00002F0C6F8002804D1206881682940491C31
:1003E000816001F06BF8C01B022808D9A06D304372
:1003F000A065E06D01210843E0650846F8BD20686E
:100400000168C943C907E3D10020F8BD1700008087
:1004100008270140400D03008800002070B500F05F
:1004200033F80024074D00F00FF82855641CE4B29F
:10043000052CF8D303482978801E41706978017033
:1004400070BD00001A000020F8B5002401260D4FF1
:10045000254676026006040E3146384601F022F841
:100460000028F9D0282000F091F83146384601F0F4
:1004700019F8012800D104436D1CEDB2082DE9D311
:100480002046F8BD0004005070B50125124C6D02E5
:1004900000222946204601F00AF8142000F042FF0D
:1004A00001222946204601F002F83C2000F06EF8B7
:1004B0002946204600F0F6FF00280BD129462046A9
:1004C00000F0F0FF0028F9D02946204600F0EAFFAE
:1004D0000128F9D070BD00000004005010B502489A
:1004E00000F02CFE10BD00000802002010B50446EC
:1004F000006C09498008800040186064207814214D
:100500000838FFF72DFE04498031A164C106C90EE9
:1005100001208840E06410BD000802400179084BCA
:100520008906890E8A00D2180265054A4432491E9E
:1005300042658A07920F0121914081657047000052
:10054000FC080240F0B5846CC56C6560046D002C3D
:1005500002D0446D856D65600B4C6568066C1C2788
:100560003E400127B7403D4365600468636083688F
:10057000102B036803D099600068C260F0BD9A60D8
:100580000068C160F0BD000000000240002804D0F7
:100590001921491EFDD1401EFAD1704710B500F057
:1005A000ADF8CC2000F0D2F84E2000F0CFF81920A2
:1005B00000F0CCF81A2000F0C9F87F2000F0C6F84F
:1005C00000F09CF8CC2000F0C1F8482000F0BEF804
:1005D00000F094F8CC2000F0B9F8B82000F0B6F89C
:1005E00010BD000030B5024600200146054B064C08
:1005F00004E05D5C4540605D491CC9B29142F8D39E
:1006000030BD000000080020A46C000810B5FFF702
:10061000C5FF00F073F8142000F084FECC2000F039
:1006200095F8442000F092F8142000F07BFE00F0D2
:1006300065F8142000F076FECC2000F087F8BE208C
:1006400000F084F8092000F049F800F057F809207C
:10065000FFF7C8FF00280DD1084841780278090249
:1006600011430A0906494A70007806220007000F64
:100670005043887000F042F810BD000000080020D0
:100680001500002010B5FFF789FF10BDF8B5002454
:1006900005263607254680276408002201213046BA
:1006A00000F005FF0220FFF771FF012211463046DE
:1006B00000F0FDFE0A20FFF769FF0121304600F03F
:1006C000F1FE012800D13C433C20FFF75FFF6D1C89
:1006D000EDB2082DE0D32046F8BD000070B5054608
:1006E0000024054E04E0FFF7D1FF3055641CE4B24E
:1006F000AC42F8D370BD00000008002010B50524FE
:10070000012224071146204600F0D1FE0220FFF707
:100710003DFF00220121204600F0C9FEFF20F530F8
:10072000FFF734FF01221146204600F0C0FE0121F0
:10073000204600F0B7FE0449002802D000200870CF
:1007400010BD0120FBE700001500002070B500245B
:10075000052506462D0700220121284600F0A7FEA8
:100760003046E040C00701D0022000E01E20FFF725
:100770000DFF01221146284600F099FE3C20FFF7AC
:1007800005FF641CE4B2082CE5D370BD72B6FEE729
:1007900010B50379642B0AD20468DB00E1520179B9
:1007A0000368C900891C5A520179491C017110BDA6
:1007B000FFB568460088C7B2801DC6B2684640884B
:1007C000C5B2801DC4B268460089C3B2801DC2B2E2
:1007D00068464089C1B2801DC0B29E4203D3974291
:1007E00001D8012200E000228C4206D3854204D8C1
:1007F000002A02D0012004B0F0BD0020FBE71FB5A5
:100800000446811D082202A8FFF7E6FC082268467C
:100810002168FFF7E1FC68460FC8FFF7C9FF002811
:100820000AD0E07BC822401CE07311462046FFF747
:10083000AFFF204600F001F81FBD10B5044600F0E0
:100840003DFEFFF7C0FCFFF7B5FC6921FFF79EFCFA
:100850000F31E180FFF7AEFC2821FFF797FC143140
:10086000218110BD10B504460079C00003F056F890
:10087000206000202071A073E073607110BD000043
:10088000F0B50446006885B0018881802068418801
:10089000C18060792168430032480A88C356D21863
:1008A0000A80637921685B00181801234A88C356BF
:1008B000D018488020680021415E002901DC802199
:1008C00002E0802901DB0021018020680221415ED5
:1008D0000C2901DC402102E0402901DB0D2141808F
:1008E000012113E0C8002268031D155AD552236860
:1008F000821C9D5A861D9D532368051F5D5B1D52FA
:10090000801E2368491C185A9852C9B2207988421F
:10091000E8D800250006000E1BD0022714E0052DA4
:1009200012D32668E8003118082202A8FFF754FC09
:10093000082231466846FFF74FFC6E460FCEFFF7A0
:1009400037FF002800D0A7736D1C2079EDB2A842B4
:10095000E5D82046FFF753FF502000F0E3FC05B038
:10096000F0BD00000D000020F8B500260546044645
:1009700040350096287D01280ED00120287520469C
:10098000FFF7C2FC024620688168C907C90F05D07D
:10099000A06D1021084330E00220F8BDA16DFF23B7
:1009A0000133994302231943A165C168C3688907CC
:1009B000890F9B089B00C360206883680127FF079D
:1009C0003B4383600F4B20680DE0009F7F1C009726
:1009D0009F4208D3A06D0221884310210843A065DF
:1009E0002E750120F8BD8768FF0FEED1C3680B4359
:1009F000C360A06D80088000401CA0652E75104665
:100A0000F8BD000000F20200704770477047704761
:100A1000F8B500270646044640360097307D0D465F
:100A200001280FD001203075206801F09DFD0028BD
:100A30000AD0A06D20210843A06501270020307551
:100A40003846F8BD0220F8BD686802287ED0012231
:100A50002169D207914202D0121D914206D120682D
:100A60002968826A4903490B0A436EE0C206D20E26
:100A70000F20216E904081432868430302D0C307B2
:100A80004BD102E04000C00E48E0830701D50120B1
:100A900044E0430701D5022040E0030701D50320CD
:100AA0003CE0C30601D5042038E0830601D50520CB
:100AB00034E0430601D5062030E0030601D50720C7
:100AC0002CE0C30501D5082028E0830501D50920C5
:100AD00024E0430501D50A2020E0030501D50B20C1
:100AE0001CE0C30401D50C2018E0830401D50D20BF
:100AF00014E0430401D50E2010E0030401D50F20BB
:100B00000CE0C30301D5102008E0830301D51120B8
:100B100004E0400301D5122000E000209040014392
:100B200021666968E2698808401C904210D82068F4
:100B30002B68826A9C46C906C90E0F238B409A43D4
:100B400063469B001B0F8B401A4300E03BE0826230
:100B50002168AB6828684A69000282431840400156
:100B6000400902434A612868002800DB66E72B4AF7
:100B7000116807239B051940294B984214D10B0299
:100B800012D4C0020143104601F0FAFC2648254960
:100B90000068FFF7E5FA0C214843401C00E0401EC6
:100BA00000900028FBD149E7204B984203D1CB01AC
:100BB00001D4800205E01E4B9842D7D14802D5D41B
:100BC0005802014325E001212069C907884202D06B
:100BD000091D884206D120682968826A4903490BA9
:100BE0008A43826228680028C0DA0C4A1168072309
:100BF0009B0519400A4B984201D1C00208E00B4BFB
:100C0000984201D1800203E0094B9842AED14002E4
:100C10008143104601F0B4FC10E7000008270140B2
:100C2000001000B0400D030088000020004000B814
:100C3000002000B47047704770470000F8B50446C4
:100C4000006806684568B0070FD5A8070DD5A06DE8
:100C5000C00604D4A06D0121C9020843A065204646
:100C6000FFF7D3FE216802200860474F700701D5C7
:100C7000680703D4300728D5280726D5A06DC006FD
:100C800004D4A06D012149020843A065206801F049
:100C90006FFC002813D0A07E002810D120680168C6
:100CA00009070CD501F060FC01460120002960D045
:100CB000A16D20221143A165E16D0143E16520464C
:100CC000FFF7B8FF21680C20086030060CD5280615
:100CD0000AD5A06D012109040843A065204600F053
:100CE0007BF9216880200860F0050BD5E80509D55F
:100CF000A06D012149040843A0652046FFF786FE48
:100D000020680760B0050DD5A8050BD5A06D0121A1
:100D100089040843A0652046FFF779FE0120216879
:100D200040020860F00618D5E80616D5206B0028AA
:100D300004D02068C0688007800F0BD0A06D01210F
:100D400089020843A065E06D02210843E065204662
:100D5000FFF772FF216810200860B00408D5A804CE
:100D600006D52046FFF750FE0120216840030860A9
:100D7000F8BD21684A680C239A434A60A16DB943C3
:100D80000143A1659BE7000000010000FEB50027BC
:100D900004463E4601970097002803D0A06D002826
:100DA00002D008E00120FEBD204600F017F9002027
:100DB000E0655421085520688168C900C90F11D128
:100DC00081687C4A114001221207114381607B48EF
:100DD00079490068FFF7C4F9400000E0401E009028
:100DE0000028FBD120688168C900C90F08D1A16D16
:100DF00010221143A165E16D01221143E1651746FF
:100E000001F0B2FBA16DC90601D4002804D0A06D89
:100E100010210843A065CAE0A06DFF21013188437D
:100E200002210843A065206801F09AFB0146204694
:100E3000203000292FD12268D16818239943A36854
:100E40001943D160626C216C636811439B0FA26CE3
:100E50009B071A431143E26C11430E43017F0129A2
:100E600000D10E4322681169554B1940314311617D
:100E700003226168920791420DD05A0791420AD02D
:100E80005200914207D04F4DAB680F22920493431A
:100E900011400B43AB60217E8D03617EC9030D437E
:100EA000A17E4A031543226B002A01D001221203BE
:100EB0001543E26815432269002A02DA52005208FB
:100EC00001E0012252051543027B007852001543D0
:100ED000019A1543012809D1002955D0A06D202180
:100EE0000843A065E06D01210843E065606A0028C1
:100EF00006D0FF22C1321040A16A28430D460543A7
:100F00002168C868304A10402843C86021680869D1
:100F10002E4A1040304308610021626B206801F0C6
:100F200036FB2B49A26B206801F031FB0F212069B1
:100F3000C94300282CD001225205904216D1226EBE
:100F4000002083001646DE40F3431B0702D0401CFE
:100F50000828F6D301281BD02068836A237F9B00D2
:100F60001B1FDB06DB0E9940114381622068C068BD
:100F700018490840A84210D10020E065A06D800803
:100F80008000401CA06513E0012000040543ADE78C
:100F90002068826A0A438262E8E7A06D02218843E2
:100FA00010210843A065E06D01210843E065012799
:100FB0003846FEBDE8FFFF7F400D0300880000209B
:100FC00002FCFF1F002701401902FEFF02FCFFDFA9
:100FD00004FFFF07E7FF3F837047000070B586B04E
:100FE000054614216846FFF710F92349286888420E
:100FF0003FD122480268012109050A4302600068C6
:10100000084005901D484038416B0122114341635F
:10101000406B0026104005900620009003200190B0
:10102000052069460296000700F08EF9154C144819
:101030002060A6600520E66060608020206140009E
:1010400060618000A0612020E06103200003206235
:10105000204600F0CFF8002801D0FFF797FB2C6561
:10106000002211460C20A56200F0ACFA0C2000F022
:101070009DFA06B070BD00000024014040100240FF
:101080000800024008020020F7B50446006801F09D
:101090006BFA002845D125464035287D012840D0EF
:1010A00001272F752068C1681F4EC9070CD101F0B8
:1010B00057FA002804D0206881683140891C81607B
:1010C0002068C1683943C1602046FFF753F9002802
:1010D00026D1A06D15490840FF2101310843A065C4
:1010E0000020E065226D1249D162226D1149116321
:1010F000226D1149516322681C21116028752068F6
:1011000041681022114341602168206D4031029BEB
:10111000019A00F0C1F821688A683240121D8A6085
:10112000FEBD0220FEBD0000E8FFFF7FFEF1FFFFD5
:1011300065020008FF020008E5020008F0B42C492F
:101140000C6802681368056C1C273D400426AE40FD
:10115000264211D05E070FD513689B0603D414688E
:1011600004239C4314604B68046C04223C40A2405E
:1011700013434B60016B1CE00227AF40064627403B
:101180002036002F19D09F0717D513689B0605D46A
:1011900013680A24A3431360012272714B68046C24
:1011A0001C2214400222A24013434B6000213171E3
:1011B000C16A00291AD0F0BC08470827AF4027426F
:1011C00014D01B0712D513680E24A34313604B6879
:1011D000046C1C22144001221546A5402B434B6091
:1011E000C263727100213171416BE2E7F0BC70475C
:1011F0000000024070B504003FD025482568142146
:101200002818FEF7ADFF8000206402202646203615
:10121000707128681F4908402860E168A068626909
:101220000843216911430843A1690843E169084360
:10123000216A084321680A68104308602046FFF7C6
:1012400055F90121A06889030025884200D1656015
:101250002079616C8006800E0860A06CE16C4160B2
:101260006068401E03280AD82046FFF757F9206D12
:101270000560606DA16D416004E0012070BD2565D1
:101280006565A565E563012070713571002070BD4D
:10129000F8FFFDBF0F80FFFFF8B504468C462030F5
:1012A0000179002501290BD001260671417900271B
:1012B000012907D08021E163077101252846F8BD87
:1012C0000220F8BD02214171E763206801684908E6
:1012D0004900016061462046FFF734F9206B002881
:1012E0002068016801D00E2205E0042291430160CC
:1012F000206801680A2211430160606C0168CA031A
:10130000074902D502680A430260206D002802D016
:1013100002680A4302602068016831430160CDE73A
:101320000001000070B5044600F0C8F80546601CD6
:1013300002D004480078241800F0C0F8401BA042F6
:10134000FAD370BD7C000020FCB5002301259AE093
:1013500022462C469C4022406FD04E68012E05D07C
:10136000022E03D0112E01D0122E16D1866803272B
:10137000B4465E00B646B7406646BE43B446CF6844
:101380007646B7406646374387604668A6430C7981
:10139000E406E40F9C4034434460C6685F000324C5
:1013A000BC40A446A6438C68BC403443C4604C682F
:1013B000022C01D0122C14D1DC08A40024180194B2
:1013C000266A5C07B646E60E0F24B44000967646C1
:1013D000A643B6460C69009EB44076462643019C5F
:1013E000266204686646B4430E79B607B60FBE405F
:1013F000264306604C68E40044D59E08254CB600A0
:101400003419A446246E9E07F60E0F27B740BC433E
:1014100005273F07B84201D1002710E01E4FB84210
:1014200001D101270BE01D4FB84201D1022706E090
:101430001B4FB84202D1032701E023E00527B74044
:10144000274364462766134E803634684F689443BA
:10145000FF0300D51443346074684F689443BF039E
:1014600000D5144374600B4C26684F689643FF0206
:1014700000D51643266066684F689643BF0200D5C4
:10148000164366605B1C0A681446DA4000D05FE7CA
:10149000FCBD00000018024000040050000800508D
:1014A000000C00500069084000D001207047002A5D
:1014B00001D08161704781627047000001488068F7
:1014C000704700007C00002002488168027889187B
:1014D000816070477C00002010B508480024016836
:1014E000821511430160204600F00AF8002801D05F
:1014F000012401E000F040F8204610BD0020024029
:1015000000B5014687B00022122000F05BF81220DF
:1015100000F04CF81348C26B20210A43C263C06B31
:101520000840059004A9684600F0D2F900F0ECF9F3
:101530000D49FEF715FE0E490C4A0A600D4A401E81
:10154000CA604860002008618860084600F0B5FD68
:10155000002802D0012007B000BD054800F0D4FDEE
:10156000F9E700000010024040420F000014004064
:1015700020030020E703000008B50B4801680122A2
:101580001143016000681040009007484038C26B6A
:1015900001040A43C263C06B08400090032040026C
:1015A00000F07EFD08BD000040100240002805DB71
:1015B000C106C90E0120884001490860704700003B
:1015C00000E100E010B501F08BFF10BD10B50F4C2D
:1015D000216803225202914301432160C11FFF3958
:1015E000FA390ED10A480621006848430949FEF736
:1015F000B7FD401C02E0002805D0401E6169490586
:10160000F9D4002010BD032010BD00000070004080
:101610008800002040420F00F8B50446006800260C
:10162000524D800358D5514800274038C06BC00048
:1016300009D44E484038C26B01040A43C263C06BF0
:101640000840012700904A48016882151143016053
:10165000FFF734FF009005E0FFF730FF0099401AD4
:10166000022825D842480068C005F5D5E86903215D
:10167000090208400FD0A16981420CD0E86903211A
:101680000902EA698843012109040A43EA61EA6917
:101690008A43EA61E861C0070FD0FFF70FFF0090AF
:1016A00008E0FFF70BFF0099411A3248814201D947
:1016B000032609E0E8698007F3D5E86903210902F8
:1016C0008843A1690843E861002F05D027484038C6
:1016D000C16B02049143C1632078C00705D06869DB
:1016E000616880088000084368612078800705D51C
:1016F00068690C218843A1680843686120788006E6
:1017000006D56869032109038843E16808436861D5
:101710002088400411D56869616980008008084309
:101720006861012160698907884206D10F48403805
:10173000C168012212041143C1602088000512D53E
:10174000686903218903884321690843686101218D
:1017500020698903884206D104484038C1680122C3
:1017600012041143C1603046F8BD00004010024031
:101770000070004088130000F8B50F46060043D003
:101780004D4D28684007400FB84213D22868C00862
:10179000C00038432860FFF791FE044605E0FFF7DC
:1017A0008DFE011B4548814261D828684007400FE3
:1017B000B842F4D13068424C81070DD5400704D5BA
:1017C000A068072109030843A060A0680F2109024F
:1017D0008843B1680843A0603078C00732D0706891
:1017E00001280AD002280BD000280FD034494031FC
:1017F00003280ED0C969890704E02168890301E044
:1018000021688901002906DB0120F8BD216849050E
:10181000F8E7096AEFE7A168C908C9000143A160B8
:10182000FFF74CFE009006E0FFF748FE0099411AD2
:10183000224881421BD8A068382108407168C9003D
:101840008842F1D128684007400FB84217D91A489A
:101850000168C908C90039430160FFF72FFE05463A
:1018600007E0FFF72BFE411B1448814201D90320FA
:10187000F8BD114800684007400FB842F1D13078F8
:10188000400706D5A068072109038843F16808438B
:10189000A06000F04DF8A1683C2289091140094A76
:1018A000515CC906C90EC84007490860074800686E
:1018B000FFF726FEF8BD000000200240881300005C
:1018C00000100240BC6D000888000020800000204D
:1018D00010B5072202600A4A93685B075B0F4360FA
:1018E00093680F24240223408360926807231B031C
:1018F0001A40C260034800684007400F086010BDEE
:10190000001002400020024006480749006889682C
:10191000064A4904490F8900515CC906C90EC840EE
:10192000704700008800002000100240FC6D000895
:1019300010B5204CA068204A8006400F16D0A06841
:101940008006410F501001290FD0A1688906490F68
:10195000022912D0A0688006400F042823D0A06876
:101960008006400F032821D0002010BD20680121EF
:101970008004400F8140104612E0E1688B07E16867
:101980009B0F4906490F491C032B00D01046FEF758
:10199000E7FBE1684904490E4843E168490F491CE7
:1019A000FEF7DEFB10BD0120C00310BD7D2000024C
:1019B00010BD0000001002400024F400F8B504003F
:1019C0007ED020783827C007EB4D002846D0A86885
:1019D000E96838408907890F102802D008280BD001
:1019E00001E0032908D001206268000482420AD184
:1019F00029680143296015E0286880032ED56068B6
:101A00000028DDD02AE0052301211B0489049A4225
:101A10002A6802D10A432A60EAE782432A602868DA
:101A200088432860606800280CD0FFF747FD064611
:101A300004E0FFF743FD801B642873D82868800307
:101A4000F7D50BE0FFF73AFD064604E0FFF736FD59
:101A5000801B6428F1D828688003F7D42078800799
:101A600069D5A868E96838408A070721920FC9023A
:101A7000102802D0002813D001E0022A10D0E0681C
:101A8000002846D0286888432169084328602868D0
:101A9000FF21013108432860FFF710FD06462CE0C6
:101AA0002A68520502D5E268002A89D06A687F2335
:101AB0001B029A4363691B021A436A60002800E014
:101AC0008DE00ED128688843216908432860286882
:101AD00001218004400F8140A848FEF741FBA8493E
:101AE0000860A8480068FFF70BFD002877D122E0C6
:101AF000FFF7E4FC801B02289FD828684005F7D533
:101B000068687F21090288436169090208436860A7
:101B100011E02968FF20013081432960FFF7CEFCE6
:101B2000064605E098E0FFF7C9FC801B022884D830
:101B300028684005F7D42078934E00072ED5A86872
:101B40008006400F03280AD0A0690028306A16D00A
:101B5000012108433062FFF7B1FC07460BE0306A11
:101B600080071BD5A06900289FD017E0FFF7A6FCCF
:101B7000C01B022870D8306A8007F7D50EE04008F5
:101B800040003062FFF79AFC074604E0FFF796FC3E
:101B9000C01B022860D8306A8007F7D4207840073D
:101BA0006CD5A86800278006400F042818D0E86B81
:101BB000C00008D4E96B012000070143E963E96B29
:101BC00001400127009171480168C90519D40168D5
:101BD000821511430160FFF771FC00900DE083E076
:101BE000F06980074AD5A06800287DD046E0FFF75D
:101BF00065FC0099401A02282ED864480068C00588
:101C0000F5D5A168012910D004200529F16911D06A
:101C100049084900F161F1698143F161A068002838
:101C200016D0FFF74BFC00900EE0F069012108434D
:101C3000F061F3E70143F161F7E7FFF73FFC00993B
:101C4000411A534881426DD8F0698007F5D50EE0FE
:101C5000FFF734FC009007E064E0FFF72FFC0099E9
:101C6000411A4B4881425DD8F0698007F5D4002FB6
:101C700004D0E96B012000078143E963E069002893
:101C800077D0A9688906490F022951D00126360666
:101C9000022828680DD0B0432860E86880088000DA
:101CA000E860E8683B490840E860FFF707FC044645
:101CB0003AE0B0432860FFF701FC074604E0FFF775
:101CC000FDFBC01B02282DD828688001F7D4616A6B
:101CD000206AA26A0843E16A120211430843216B99
:101CE0000843E9682C4A00E041E011400843E860FD
:101CF000286830432860E868012109070843E86044
:101D0000FFF7DCFB044604E0FFF7D8FB001B0228CA
:101D100008D828688001F7D52BE0FFF7CFFB001B20
:101D2000022801D90320F8BD28688001F5D420E0FD
:101D30000128F8D0E868226A8107890F914216D1FC
:101D40007021626A0140914211D17F21A26A090289
:101D50000140120291420AD11F214904E26A014066
:101D6000914204D1400F216B4007884201D00120ED
:101D7000F8BD0020F8BD0000001002400024F4006F
:101D800088000020800000204010024000700040C9
:101D900088130000FFFFFEEF8C80C11F10B50068A4
:101DA0000B464068C021C94301400002000ECC042C
:101DB000D870E40E5C708C06A40E0904490F9C7068
:101DC0001970002A0AD100F04DFED870587800F042
:101DD00049FE5870987800F045FE9870002010BDBC
:101DE00010B50B46016889685960016809694904A2
:101DF000490C9960006801680E4801408802800E15
:101E00004C041870640E5C704C06640E4902C90FD5
:101E10009C70D970002A0AD100F024FE18705878FE
:101E200000F020FE5870987800F01CFE987000209A
:101E300010BD00007F7F7F0070B504460120002C9C
:101E400049D025462035687A002806D1287211200D
:101E5000C0026060204600F041F8022068722168EC
:101E6000CA204862216853204862204600F00EFED6
:101E7000002829D120688169174A114081612168B1
:101E80008869A268E369104362691A431043886154
:101E900021682069086120680169A2891204114340
:101EA0000161204600F014FE00280DD121688A69E6
:101EB000D200D2088A6122689169636AA6691943CF
:101EC000236A3343194391612268FF21516200283C
:101ED00001D10121697270BDBFFF8FFB08B5006899
:101EE000094988420ED10948C1690122D203114330
:101EF000C16106484038C26B01150A43C263C06B1A
:101F00000840009008BD000000280040401002403A
:101F1000F8B5064605462036307A0B4601280FD024
:101F20000127377202207072002A0BD0D8789C7873
:101F3000000404435878097800024903084317E075
:101F40000220F8BD5878C10603D5EF2108400A30B9
:101F50005870D87800F08EFD0404587800F08AFD9F
:101F600000020443987800F085FD0443187840038C
:101F700004432968CA2048622968532048622846D9
:101F800000F084FD002806D107480440286844601A
:101F9000284600F09DFD2A68FF215162002800D1EB
:101FA000777200213172F8BD3FFFFF00F7B506469A
:101FB00005462036307A0C46012810D001203072B8
:101FC000022070722968CA2048622968532048623A
:101FD000284600F05BFD0027002802D027E0022001
:101FE000FEBD029800282868806926D0400600D4EB
:101FF000E7702078A378000403436078E17800025A
:10200000890508430343184803402868036028688B
:10201000816901229204914381612169E06808434A
:1020200029688A6910438861284600F051FD2A68B2
:10203000FF215162002813D014E0400600D4E7705D
:10204000207800F017FD0304607800F013FD000213
:102050000343A07800F00EFD0343E0788005D1E74C
:10206000012171723772FEBD7F7F7F0070B504461B
:102070000068C168A0229143C160FFF71FFA7D2666
:102080000546F60006E0FFF719FA401BB04201D9F9
:10209000032070BD2068C0688006F4D5002070BDA4
:1020A00003490A6803235B029A4302430A607047AC
:1020B0000000014070477047704770B5040005D0BC
:1020C00025462035687F002802D006E0012070BD3B
:1020D00000202877204600F016F802206877211D9E
:1020E000206800F08DFD012240342272AA77EA7741
:1020F00022706270A270E27022716271A271E2714C
:102100006A77002070BD7047014620314A7F012A5E
:1021100001D00120704702224A770168CB68012272
:102120001343CB6000680B49884205D00A498842B6
:1021300002D00A49884207D18168094B1940062913
:1021400005D0DB1F994202D00168114301600020D5
:1021500070470000002C0140000400400040014096
:10216000070001007047000070B50446006801696F
:102170000025C9438907002915DBC168C9438907C0
:1021800011D4E91E01610120207720688069800751
:10219000204602D0FFF7E6FF04E000F0A7F8204653
:1021A00000F0A5F8257720680169C943490717D4CD
:1021B000C168C943490713D40421C94301610220FE
:1021C0002077206880698005800F204602D0FFF7C5
:1021D000C9FF04E000F08AF8204600F088F825776F
:1021E00020680169C943090716D4C168C9430907B2
:1021F00012D40821C9430161042020772068C069F6
:102200008007204602D0FFF7ADFF04E000F06EF833
:10221000204600F06CF8257720680169C943C9069B
:1022200017D4C168C943C90613D41021C943016139
:10223000082020772068C0698005800F204602D0E2
:10224000FFF790FF04E000F051F8204600F04FF84F
:10225000257720680169C943C90708D1C168C94306
:10226000C90704D1891E0161204600F041F82068A9
:102270000169C943090609D4C168C943090605D4DF
:102280008021C94301612046FFF715FF20680169DD
:10229000C943C90508D4C168C943090604D4124911
:1022A00001612046FFF706FF20680169C94349061E
:1022B00009D4C168C943490605D44021C943016115
:1022C000204600F01FF820680169C943890609D437
:1022D000C168C943890605D42021C943016120464C
:1022E000FFF7EAFE70BD0000FFFEFFFF704770477A
:1022F00010B500680249884201D1FFF7E5F810BD2A
:1023000000140040704710B5014680310A78012A58
:1023100015D001220A7024224A60026813681468EA
:10232000640864001460012252079343002242664D
:1023300000680360202048600A70104610BD02202B
:1023400010BD70B5044605468034207801281AD0A7
:102350000120207024206060286806680268520806
:10236000520002602868826807235B069A430A438A
:102370008260284600F088FC2868066020206060A3
:102380000020207070BD022070BD70B50446054667
:1023900080342078012819D001202070242060602A
:1023A000286806680268520852000260286882683D
:1023B000D200D2080A438260284600F065FC2868F3
:1023C0000660202060600020207070BD022070BD7B
:1023D00070B5040005D0254680356868002802D015
:1023E00006E0012070BD00202870204600F026F88D
:1023F000242068602068016849084900016020467F
:1024000000F00AFD0128EDD0A06A002802D0204685
:1024100000F06AFC206841680922D20291434160C1
:10242000206881682A229143816020680168012226
:1024300011430160204600F0BDFC70BD10B586B0B0
:10244000044614216846FDF7E0FE124920688842E0
:102450001ED111480268012189030A430260006805
:10246000084005900C484038426B04210A434263FF
:10247000406B084005903020009002200190002021
:10248000029003900120049069460448FEF75CFF27
:1024900006B010BD00380140401002400008005056
:1024A000FEE7000010B52D482C490288AF20192303
:1024B00000014988DB01824205D2814203D9994259
:1024C00001D2012010BD9A4205D9814203D9994217
:1024D00001D2032010BD814205D2824203D99A4223
:1024E00001D2022010BD994205D9824203D99A42F5
:1024F00001D2042010BD824203D2814201D20520C4
:1025000010BD9A4203D9814201D2062010BD8242F9
:1025100003D2994201D9072010BD9A4203D99942AA
:1025200001D9082010BD0524240708212046FEF704
:10253000B9FF012810D01420FEF7F4FE0821204630
:10254000FEF7B0FF012807D008212046FEF7AAFFBA
:102550000128F9D1092010BD002010BD0400002081
:102560008068C007C00F704780684007C00F704781
:10257000C0680005800F01D000207047012070471F
:10258000026807239B059A430A430260704710B50F
:1025900043690424214007248C40A3438A40134309
:1025A000436110BD3EB500242048009401941E49AB
:1025B00002940160032184608904C46041600121A8
:1025C000042549054561016104764476012282763D
:1025D0000221C161014620310C70446284620A7399
:1025E00006224263046382630C77C464FEF7CEFB69
:1025F000002801D0FEF7CAF80D4800900194694602
:1026000002940A48FEF704FA002801D0FEF7BEF84B
:1026100008480090694601950448FEF7F9F900283A
:1026200001D0FEF7B3F83EBD00240140A401002014
:10263000020000040400000808B50848816B01226C
:1026400011438163806B10400022009011460920E5
:10265000FEF7B8FF0920FEF7A9FF08BD00100240F1
:10266000F0B587B014216846FDF7CFFD3148426BC5
:1026700020210A434263426B0A400592416B0124C8
:1026800021434163416B21400591426B04210A4380
:102690004263426B0A400592426B02210A43426345
:1026A000406B012208400590052011460007FEF707
:1026B000FEFE0F263603012231461F48FEF7F7FEC5
:1026C0002702002239461D48FEF7F1FE0022610272
:1026D0001948FEF7ECFE0025052000940295694696
:1026E000000703950194FEF72FFE082000900520B7
:1026F0006946019502940007FEF726FE0320039029
:1027000001946946009602940B48FEF71DFE02955F
:1027100069460A48009703950194FEF715FE60028A
:10272000694631C1694604480395FEF70DFE07B0BE
:10273000F0BD0000001002400004005000080050EE
:1027400010B586B014216846FDF75FFD00241F48D0
:1027500005941D49846001607F21C16044618461EA
:10276000FF21C46101610121890744620162FFF711
:1027700063FB002801D0FEF709F8082168460170C4
:1027800030214170847001940394012269460F48FE
:102790000494FFF70BFC002801D0FDF7F7FF05219B
:1027A0006846017512214175292181752321C17562
:1027B000012205A90548FFF7ABFB002801D0FDF772
:1027C000E5FF06B010BD00000028004064020020B4
:1027D00010B5184816490160E12149024160002105
:1027E0008160C16001618161C16101620C2241624D
:1027F00042618162FFF7ECFD002801D0FDF7C6FFC2
:1028000000210C48FFF7C1FD002801D0FDF7BEFFF5
:1028100000210848FFF795FD002801D0FDF7B6FF1D
:102820000448FFF770FD002801D0FDF7AFFF10BD91
:102830000038014090020020FEE770B500242046D9
:10284000B030C0B2002100F0CFF80021084600F0FF
:10285000CBF80021102000F0C7F80025012100204E
:1028600000F0C2F86D1CEDB2802DF7D3641CE4B209
:10287000082CE4D370BD000030B587B01421684641
:10288000FDF7C3FC4C48426B02210A434263406B94
:102890000F2408402403009405900120019000209B
:1028A000464D0290039069462846FEF74DFD0122F1
:1028B00021462846FEF7FBFD6420FEF733FD00218C
:1028C000AE2000F091F80021084600F08DF80021BC
:1028D000102000F089F80021402000F085F8002148
:1028E000812000F081F80021CF2000F07DF8002148
:1028F000A12000F079F80021C82000F075F800212F
:10290000A62000F071F80021A82000F06DF8002149
:102910003F2000F069F80021D32000F065F8002185
:10292000084600F061F80021D52000F05DF8002194
:10293000802000F059F80021D92000F055F800213E
:10294000F12000F051F80021DA2000F04DF80021CC
:10295000122000F049F80021DB2000F045F80021AA
:10296000402000F041F80021202000F03DF8002137
:10297000022000F039F800218D2000F035F8002108
:10298000142000F031F80021A42000F02DF80021DF
:10299000A62000F029F80021AF2000F025F8002142
:1029A000AF2000F021F8FFF748FF0021084600F0B3
:1029B00007F807B030BD00000010024000040050CE
:1029C00010B50446B031C8B2002100F00DF820095E
:1029D0000021103000F008F82007000F0121084303
:1029E000002100F001F810BDF8B51D4D0646002984
:1029F00001D0012200E000220121C9032846FEF790
:102A000056FD0121002209032846FEF750FD00244F
:102A100001277F03002239462846FEF748FD30068D
:102A200001D5012200E00022012189032846FEF79A
:102A30003EFD012239462846FEF739FD7006641C2A
:102A4000060EE4B2082CE5D3012211032846FEF756
:102A50002EFD0122D1032846FEF729FDF8BD000016
:102A60000004005001090A2200075143000F4018DA
:102A7000C0B270470022014602E00A39C9B2521CB6
:102A80000A29FAD21007000E08437047F8B5044629
:102A900000680025C168490618D4C1688022114326
:102AA000C160FEF70BFD27460646203708E0FEF71B
:102AB00005FD811B7D20C000814201D903257D7267
:102AC0002068C068400601D4032DF0D12846F8BD27
:102AD000F8B5124C0026E16880229143E160A169BB
:102AE000054689062035002907DBFFF7BFFA0028D5
:102AF00011D00320687206460DE0A1692027B94372
:102B0000A161FFF7B3FA002802D0032068720646DD
:102B1000A0693843A0613046F8BD0000002800409D
:102B20007047000010B5FDF7E5FA044602F0E6F83C
:102B3000002803D001200349000748602046FDF724
:102B4000DDFA10BD00ED00E070B598B034216846A4
:102B5000FDF75BFB00241494159416941C210DA81A
:102B60001794FDF752FB012676023046FEF72EFD44
:102B70000A200090701003904020059001200690DC
:102B800008200A90022580030B9007950003049407
:102B90000C90089509946846FEF710FF002801D0B4
:102BA00072B6FEE70720149016940221159517942B
:102BB00014A8FEF7E1FD002801D072B6FEE7074831
:102BC0000D90C0070E94129013960DA8FEF724FDE9
:102BD000002801D072B6FEE718B070BD01400200B7
:102BE00001200249C00688607047000000ED00E047
:102BF00010B50248FFF7B8FA10BD0000200300200E
:102C0000F0B502681A4B1B4C984201D0A04203D188
:102C10007025AA434D682A43174D184E184F984205
:102C20000AD0A04208D0174CA04205D0A84203D039
:102C3000B04201D0B84205D1144603221202944397
:102C4000CA6822438024A2434C69224302608A68F6
:102C5000C2620A688262984205D0A84203D0B0429C
:102C600001D0B84201D10969016301214161F0BD80
:102C7000002C01400004004000400140004401409D
:102C80000048014000200040F0B513A106C985B0FE
:102C90000192009112A206CA039202910446416E6B
:102CA0004034002915D000688168806809014D0F03
:102CB000400F02AE315C6F46385CC000FDF750FA41
:102CC0006085785D715DC000FDF74AFA208505B02A
:102CD000F0BD01206085F9E7010101030701000053
:102CE000080402040801010110B5018DC90707D0CD
:102CF00001684A6801235B049A43C36A1A434A6025
:102D0000018D890707D501684A6801231B049A438E
:102D1000036B1A434A60018D490707D501684A6869
:102D200001239B049A43436B1A434A60018D0907B0
:102D300007D501684A680123DB039A43836B1A4372
:102D40004A60018DC90607D50268916801231B03FB
:102D50009943C36B19439160018D890607D50168BA
:102D60008A6801235B039A43036C1A438A60018DCE
:102D7000490612D503685A6801210905446C8A4343
:102D800022435A60426C8A4207D102685168032389
:102D90005B059943836C19435160018D090607D582
:102DA00001684A680123DB04C06C9A4302434A600D
:102DB00010BD0000FEB50546002680350446EE60D5
:102DC000FEF77CFB019020680068124F000709D5D0
:102DD00001210097002249052046019B00F0E8F8F8
:102DE00000280DD12068006840070BD5012100970D
:102DF000002289052046019B00F0DAF8002801D066
:102E00000320FEBD20206860A860E6662E700020CA
:102E1000FEBD0000FFFFFF01F8B504468068216990
:102E2000E26908436169002511430843616E01436B
:102E300020680268544B1A400A43026021684868BF
:102E4000032212039043E26810434860A169206A9C
:102E5000084321688A684D4B1A4002438A60206803
:102E6000C16A626A090909011143C162484A2068BE
:102E7000484990420AD148698007800F20D0012834
:102E800014D0022810D003281CD111E0424A9042ED
:102E900010D148690C21084012D0042806D0082817
:102EA00002D00C280ED103E002210CE004210AE03C
:102EB000082108E03949884202D03949884201D1C5
:102EC000002100E010210120E369C003354A364E9D
:102ED000364F834228D1002906D0022907D0042981
:102EE00007D0082941D108E0FEF70EFD03E01046A7
:102EF00003E0FEF71DFD00283BD0616A4900715ACE
:102F0000FDF72EF9616840004A088018FDF728F99E
:102F100080B201461039B94227D82449491C0140E2
:102F20000007400F084322E0002906D0022907D0FD
:102F3000042907D0082918D108E0FEF7E5FC03E0D2
:102F4000104603E0FEF7F4FC002812D0616A490045
:102F5000715AFDF705F961684A088018FDF700F914
:102F600080B201461039B94201D9012501E021683A
:102F7000C86020460121403041850185002020673E
:102F800060672846F8BD0000F369FFCFFFF4FF112A
:102F9000003801404010024000440040004800401A
:102FA000004C00400024F400A46D0008EFFF000076
:102FB000FFB581B005460F46044680350A9E38E0CD
:102FC000701C36D0FEF77AFA0499401AB04221D824
:102FD000002E1FD02068016849072AD5C069C04368
:102FE000000526D401202168C0020862206801681B
:102FF000FF22A1329143016020688168490849009D
:10300000816020206860A860E860002028700320AC
:1030100005B0F0BD20680168FF22A1329143016034
:103020002068816849084900816020206860A860A4
:10303000EBE72068C1693846884305D00021039832
:103040008142BDD00020E3E70121F8E70148006894
:10305000C06800470800002010B500F039F800F003
:103060006FF90449024808600068804710BD0000FD
:103070006C030020080000207047000010B5FFF727
:1030800011FA0F4901280CD003280FD0092807D1C5
:103090000878002804D10C490A4808600068804775
:1030A00010BD0878002806D0401E03E008780328E9
:1030B00001D2401C08706420FEF734F910BD0000F6
:1030C0000C0000207C030020080000207047000056
:1030D0000548044901600549416005498160054989
:1030E000C1607047CD3000086C03002079300008C3
:1030F000F93000087D300008FEB5002247494848F5
:10310000FEF76EFE012247494548FEF747FE464955
:10311000464800F005FF41488178009143780278E5
:1031200043A1474800F0BAF946A3082200213F48CE
:1031300000F082FE424B082250213C4800F07CFE09
:10314000444C454D20781E264027012827D00228D0
:103150003ED00021354800F0E0FE2078E1218900D2
:103160004843401901901E230F22312100962F4819
:1031700000F06AFE20781921384D48434019FDF7C8
:103180004FF8062148434008381A81B220781922A6
:10319000504343193C22254800F04EFEFEBD00215D
:1031A000224800F0BAFE2078E12189004843401906
:1031B00001901E230F22312100961C4800F044FE8E
:1031C000FDF724FA264828A103782648027817E05C
:1031D0000021164800F0A1FE2078E1218900484333
:1031E000401901901E230F22312100960F4800F054
:1031F0002BFEFDF713F9214822A10378204802781D
:103200000F4800F04BF90E48FDF70AF80621484335
:103210004008381A81B20A4BBCE700009001002038
:103220006402002000000020805D0008FC000020F7
:10323000252E32643A252E32643A252E326400005F
:10324000980000204D61696E204D656E7520333306
:10325000000000000C0000200C4F00081C5D00085E
:10326000170000201600002054656D703A202530AC
:1032700032642E2530326400000000001800002067
:103280001900002048756D69646974793A20253009
:1032900032642E25303264000000000070470000C8
:1032A00070B5224C0025A07B0126002803D0012800
:1032B00016D0022813D1FFF7F5F800280FD0A67317
:1032C000E57325711948FDF7B8FA3C2211461748F5
:1032D000FDF75EFAC82211461448FDF759FA70BD91
:1032E000FFF7E0F8012811D0FFF7DCF8022812D030
:1032F000FFF7D8F8032813D0FFF7D4F80428EED14D
:1033000060790128EBD00320607170BD60790228DC
:10331000FBD0657170BD60790328FBD0667170BD0C
:1033200060790028FBD00220EEE700008C0300202B
:1033300010B50248FDF796FA10BD00008C0300207E
:103340000548044901600549416005498160054916
:10335000C1607047313300087C0300209D320008B3
:1033600069330008A1320008F8B52F4CA07B002873
:103370001FD001282BD002281AD12C492C4800F04C
:10338000CFFD1E222BA31146294800F055FD2046F3
:10339000E27B2BA1103000F081F82346103332225B
:1033A0000A21234800F048FD7D20C000FDF7BAFF48
:1033B000F8BD1E491E4800F0B3FD142224A3114697
:1033C0001B4800F039FD282225A3142128E01648C7
:1033D000FDF756FA002506260AE0E8002168821C5F
:1033E0008A5A095A0623124800F03FFC6D1CEDB2C0
:1033F00020790096A842F0D82289E18806230C485B
:1034000000F033FC19490A4800F08AFD0648E27BC7
:1034100017A1103000F042F8034B0A2210330621A6
:10342000034800F009FDF8BD8C030020D9660008B0
:10343000FC00002047616D65204F76657221000019
:10344000796F75722073636F72653A20256400008E
:10345000507265737320616E79206B65790000008E
:10346000746F20737461727421000000805D000825
:1034700073636F72653A20256400000010B505483B
:1034800000F0E8FB0448006880688047014800F0CD
:103490003CFD10BDFC000020080000200FB410B55A
:1034A00004A9074B02AA039800F04CF8044602A9AD
:1034B000002000F0EFF9204610BC08BC04B018470B
:1034C0009538000830B47446641E2578641CAB42FD
:1034D00000D21D46635D5B00E31830BC1847000056
:1034E0008307FF22DB0E9A408907090E99400028C6
:1034F00008DB830809489B001B18186890430843A1
:10350000186070470007000F0838830804489B00C4
:103510001B18D86990430843D861704700E400E065
:1035200000ED00E002E008C8121F08C1002AFAD12D
:1035300070477047002001E001C1121F002AFBD133
:1035400070470000FFB58FB00546002606E025282D
:103550000AD0129A119990476D1C761C2878002881
:10356000F5D1304613B0F0BD002402940121B54AD4
:10357000009400E004436D1C2B780846203B9840E3
:103580001042F7D128782A280ED002222878014646
:103590003039092916D802990A235943303940187D
:1035A00014436D1C0290F1E7109802C8029110902C
:1035B000002904DA0120400304434842029002201B
:1035C00004436D1C28782E2817D104200443687802
:1035D0006D1C2A280CD110986D1C02C80091109007
:1035E0000BE000990A225143303940186D1C0090BD
:1035F0002878014630390929F3D928786C2810D069
:1036000006DC4C281AD068280ED06A2817D104E0AE
:10361000742813D07A2812D110E001204005044309
:103620000CE00121090501E0032109050C4369783B
:10363000814203D10120000524186D1C6D1C2878DF
:10364000692874D006DC00288BD0632827D0642832
:1036500006D16CE06E2808D073282CD0752878D05D
:10366000129A11999047761C5FE06002400F022881
:1036700009D003280DD00428109801680DD00E60E1
:10368000001D109051E01098F21701680E604A601A
:10369000F6E7109801680E80F2E70E70F0E71098D8
:1036A0006A4601781173001D10900020507303A822
:1036B0000190012005E0109802C8019110900020AF
:1036C000C04361070CD5002700E07F1C00998F42A2
:1036D0000FDA8742F9DB0199C95D0029F5D108E0CD
:1036E000002700E07F1C8742FCDB0199C95D0029AF
:1036F000F8D102982146C01B0290129B119A00F04B
:10370000B3F88019C61907E0019801990078491C9F
:103710000191129A119990477F1EF5D22146129B72
:10372000119A029800F090F886196D1C16E70A208D
:103730000190109901C910916102490F032900D12C
:1037400000B2042900D140B2002803DA40422D2102
:1037500003E00DE0210504D52B216A4611730121F8
:1037600003E0E10711D02021F7E70CAF0C9114E042
:103770000A200190109901C910916102490F032993
:1037800000D180B2042900D1C0B20021EDE7019937
:10379000FCF7E6FC30317F1E39700028F7D104A811
:1037A000C01B20300190600704D501200004844331
:1037B000009801E0012000900199884201DD401A43
:1037C00000E00020411800900C9809180298401A57
:1037D0000290E00306D42146129B119A029800F051
:1037E00043F8861900200D9008E003A9085C129A9E
:1037F000119990470D98401C761C0D900C998842A9
:10380000F3DBE0030CD52146129B119A029800F0DD
:103810002BF8861904E0129A302011999047761CF3
:103820000099481E00900029F5DC05E03878129ACE
:103830007F1C11999047761C0199481E0190002920
:10384000F4DC6BE709280100F8B5044600251E46A4
:103850001746880404D405E039462020B0476D1C83
:10386000641EF9D52846F8BDFFB50446002581B091
:103870001E46C80301D5302700E02027880404D560
:1038800005E038460399B0476D1C641EF9D52846FB
:1038900005B0F0BD0A68531C0B6010707047000043
:1038A0001CB5FDF719FEFFF74FF9FEF7D9FEFEF73D
:1038B000C3FEFEF777FEFEF743FFFEF789FFFCF736
:1038C000E1FE0E4800F0E8FAFFF7C6FB0C48FDF7F2
:1038D0004BF8002801D072B6FEE7022209490848D9
:1038E000FDF7D2FB0020009003460190C82206A1FC
:1038F000094801F0D9F901F05DF9FEE7FC0000206C
:10390000A401002004000020765461736B5F5570A1
:1039100064617465000000006D4C0008F0B50B3068
:10392000C108C900144F0026144A0FE003688B42F7
:103930000BD38B4205D95C1A4318456830C3083B4A
:1039400000E04368136002C004E0021D1068002814
:10395000ECD13046002803D13868002801D000207F
:10396000F0BD064A06481060064A121AD208D20074
:1039700044C001203860D7E7940000209000002068
:103980000411002000130020F8B5054601F0AEF840
:10399000304CA068401CA06020682F4F002803D046
:1039A0006069002827D02CE02560A068012828D174
:1039B000002614207043C01901F089F8761C072EE8
:1039C000F7D325488C3001F082F82348A03001F06D
:1039D0007EF82148B43001F07AF81F48C83001F071
:1039E00076F81D48DC3001F072F81B488C30A0637B
:1039F0001430E06305E02068E96AC06A884200D8B4
:103A00002560606A401C60626864E86A21698842D7
:103A100000D9206114214843C0194068A86081681A
:103A2000E9608268291D51608160E86A1421484379
:103A3000C11969613958491C395001F063F860694E
:103A4000002806D02068E96AC06A884201D201F0E5
:103A5000A5F8F8BD200000200C08002010B5044691
:103A6000006B01F05DF8204601F05AF810BD00002F
:103A70000F4E104C3746C83F11E001F037F8F068A0
:103A8000C568281D01F010F8A068401EA06060689D
:103A9000401E606001F036F82846FFF7DFFF6068DF
:103AA0000028EAD138680128F9D901F077F8F6E75B
:103AB000D408002020000020FFB581B097000C9CA6
:103AC0000D460A9EA5223946206BFCF797FB206B1A
:103AD0003F1FC019C708FF00780701D072B6FEE784
:103AE000002D0DD000202218295C20321175295C90
:103AF000002902D0401C1028F5D300214320015595
:103B0000072E01D372B6FEE7E662201DE66400F0E0
:103B1000E9FF2046183000F0E5FF24610720801BF4
:103B20006462A0613846049A019900F083F820602D
:103B30000B98002800D0046005B0F0BD0648816BEA
:103B40000968002904D0816BC968096881627047DF
:103B50000021C943FAE70000200000200348006864
:103B6000401C72B600D0FEE7FEE7000060000020B7
:103B7000F8B50446002501F045F82C4A17461046D2
:103B800051680837103000290CD129490023C90891
:103B9000C900FF260AC7F60048C0083841C1012104
:103BA000083F5160002C3CD06107490F1023591A7F
:103BB000CB439C4235D8631833D4002B31D01B49FA
:103BC0000C68A3422DD80A460832396801E00A463B
:103BD00031464E689E4202D20E68002EF7D18142D5
:103BE0001FD015680868106048680835C01A10288A
:103BF0000DD9CA1850600D484B600830566800E077
:103C0000184603685F68B742FAD3136002604868D9
:103C1000064A231A13600122D2071043486000208D
:103C2000086001F0F3F82846F8BD000064000020A9
:103C30000309002010B50124031F24061C601B1F6C
:103C40001960191F024B0B60143940380A6010BD0F
:103C50005D3B000810B501680A7C3821095C406BA7
:103C60005143C900FCF7D1FA10BDFFB581B00A9CE1
:103C70001E46101980B2009002981546801983B232
:103C80000299019800F02EF900280ED00027002C90
:103C90000BD033462A4600970299019800F03EF86F
:103CA0006D1C641EADB2A4B2F1E705B0F0BDF8B56D
:103CB00004466030007C1F4615460E46002806D09C
:103CC000012809D002280CD0032815D10FE0E16D9E
:103CD00020468847401908E0E16D20468847301AA1
:103CE00009E0E16D20468847281A85B204E0E16DBD
:103CF00020468847801986B222462846403296845C
:103D0000D08439460025204600F03BFB010003D05B
:103D1000204600F065FA85B22846F8BD7FB5054615
:103D2000803082B0007B0A99002836D06846808AAD
:103D3000002832D0012811D9022902D0032907D046
:103D40000CE06A469289101A6A46401C908105E090
:103D50006A46128A101A6A46401C1082CE072C4608
:103D6000F60F4034002E1AD068462189808981429E
:103D700013D86189814210D9E389A28905A904A8D1
:103D800000F09EF9002808D00096286B84686846E9
:103D9000838A028A81892846A04706B070BD68469A
:103DA000A189008A8142F8D8E1898142F5D96389E5
:103DB000228905A903A8E3E7FFB583B0039C1E464B
:103DC0008034A77C002F10D000200190059803AD0F
:103DD000401C80B200900498801983B207CD00F097
:103DE00081F8002826D0012521E00120EDE70C987C
:103DF0000078284201D0A77404E0607C002808D134
:103E00000198A0740020009003A807C80123FFF7C1
:103E100085FF0498401C80B20490680005062D0EB2
:103E200003D10C980125401C0C90761EB6B2002ED2
:103E3000DDD1A77407B0F0BD10B5024C446000F0AE
:103E40006DF910BD8D460008FFB583B0D81D000484
:103E5000C00C0C9D0190501980B2009004981C4633
:103E6000001983B216460D9F0499039800F03AF8A2
:103E700000280FD00CE0234632460097049903989F
:103E8000FFF79AFF0198761C3F186D1EB6B2ADB2CF
:103E9000002DF0D107B0F0BD10B504460D4B0E4A11
:103EA0000E4900F085F8204600F0AFFB00212046C7
:103EB00000F0BBFB0121204600F043F80021204622
:103EC00000F03CF80649204600F02AF82046FFF7AB
:103ED000C1FE10BD114A00089D460008406B000855
:103EE000805D000870B5044640341E460D46E189E9
:103EF000A089049B00F09CFA002805D061892089E4
:103F000033462A4600F094FA70BD10B5044600F01E
:103F10001CFB204600F081FB10BD803041747047CF
:103F200010B50446806D884207D020467430A165E4
:103F300000F0D6FA204600F057F810BD603001744A
:103F400070476030417370470149C1657047000098
:103F5000954100080022014640310A828A82034AC4
:103F60004A82CA82016B496808470000FFFF0000CF
:103F7000F8B50025069F04468565C362416320307D
:103F80000276457626466036204680307573457445
:103F9000457301218174C1742763396820468847BD
:103FA0002046FFF7D7FF2046FFF7CEFF3574F8BD58
:103FB0007CB500930C4613460546084A084900F0B4
:103FC0003CFB01A800F086FA01466846009402799D
:103FD000044B2846FFF7CCFF7CBD0000A347000838
:103FE0000D4900084944000810B5816D002917D01B
:103FF0000146803101228A568A730223CB56CB7345
:104000004C7B002C0CD0012C0BD07E2404570020BC
:1040100008562418944200DD8C73834200DDC87377
:1040200010BD03200856824200DA88730420085627
:10403000F3E7002B05D0012B05D0022B06D080180A
:1040400002E0401800E0801A80B27047401AFBE797
:10405000002B05D0012B05D0022B06D0401A02E020
:10406000801800E0401880B27047801AFBE738B52E
:10407000044605464034E08A0090638AA28A218A79
:104080002846FFF72FFF8035002816D0012028731F
:104090002189208A814200D220816189608A8142FF
:1040A00000D96081A189A08A814200D2A081E189E2
:1040B000E08A814200D9E08138BD0020287338BDF4
:1040C00030B504880D882D19ADB2AC4205D99C429B
:1040D00002D25D1EADB200E014469C4201D2954270
:1040E00001D8002030BD944200D214469D4200D930
:1040F0001D460480281B0880012030BD38B5C58FBF
:10410000049C0094521BC46A92B2A04738BD38B5D3
:10411000049C0094FFF7F2FF38BD0000FFB581B0AA
:104120001C46064600F0BCFC194F00257268217839
:10413000304690470346B84226D01548641C401EBE
:104140008342F3D03046039A0299FFF7B0FD702105
:10415000895D002906D0012907D0022908D003294A
:104160000FD10AE00299091804E00399091806E042
:104170000299091A89B2029103E00399091A89B2D6
:104180000391281885B2D1E7284605B0F0BD00009C
:10419000FFFF00000020704710B50C4600F006F845
:1041A0000122641EA240801A40B210BD70B505689D
:1041B000047B2A78E2406318DBB2082B09D3082677
:1041C000341B6D1C05602D78A5401543083BEAB2F1
:1041D000DBB201248C40641E14400373204670BD82
:1041E000F3B583B0039C2046603400F006F90B253C
:1041F0006557A17E2046FFF7CFFF0746E17E2046A8
:10420000FFF7CAFF0646217F2046FFF7C5FF019052
:104210000A202056002858DDA819404246B2237CC7
:10422000A08832463946FFF704FFA080237C32463F
:10423000E0883946FFF70CFFE080A188267C024623
:104240000B46002E06D0012E0AD0022E40D0032E9F
:104250000FD146E00A26A65773189BB2501907E003
:10426000591B0A26491C5B1CA65789B29BB2B01881
:1042700080B200900398FFF735FE002825D000207B
:10428000207260722046A17DFFF790FF074620460E
:10429000E17DFFF78BFF064600223946039800F0C8
:1042A00029F801223146039800F024F80121204624
:1042B000FFF77CFF0028EFD1092161562046A94273
:1042C000E0DB817B039880308174019805B0F0BDFC
:1042D0000A26A657991B491C5B1C89B29BB2421B3C
:1042E00004E00A264B19A6579BB2821B521C92B2BD
:1042F000401CBDE7F7B588B0089C0D466034277AAE
:10430000607A0590089880300690A07AC01BC6B2EB
:104310000196B54200D20195A088E18804910599E3
:10432000237C4AB279B203920091FFF782FE029099
:10433000237C039A00990498FFF78AFE02460A98A4
:10434000002801D0A17B03E0607B002809D1E17B3C
:1043500006988174207C0090019B02990898FFF7D1
:10436000DDFCB54207D3A81BC5B205980027401C49
:10437000C0B20590C9E778192072059860720BB039
:10438000F0BD70B50D460146806D80311730FF2DB0
:104390000FD8612D01D3098902E0412D01D3C988CD
:1043A0000818417800291FD00278AA42F8D1801C51
:1043B00070BD49890C1826460021304600F016F8D9
:1043C00004190221304600F011F8361DA842F3D33B
:1043D000207801026078084306D0A84201D1E01C91
:1043E00070BDA0780419F3E7002070BD4018017873
:1043F00040780902401880B2704730B5044605463F
:104400000166603400202073217E2046FFF7CEFE37
:10441000A072617E2046FFF7C9FEE0728035A97C5C
:10442000A173002902D00020E07330BD0120FBE71A
:104430008A4205D2834201D89A4203D901207047AB
:104440008342F9D800207047F0B58E465607760FA4
:104450000121B140CFB2014680318C460025897CD4
:104460002C46012901D83D4600D03C460768D208B9
:104470003F7CD2005743426BBFB2D119059A7144B9
:10448000002A09D10878284360400870491C5B1E47
:104490001B041B0CF6D1F0BD0A78761C2A4362403F
:1044A00076075B1E760F0A709BB2002E06D06A0656
:1044B000150E6206140E002BEED1F0BD428F51187E
:1044C0006246927C012A02D80125012AF3D00124F8
:1044D000F1E7000008210170004870470004002047
:1044E00070B5054608782870487868708878A87094
:1044F000C878E870087928714879687188790C461D
:10450000A871E079E871207A2872607A6872A07ADE
:10451000A872E07AE872207B2873607B6873A07BC6
:10452000A873E07BE873207C287411212046FFF7F4
:104530005DFF688213212046FFF758FFA8821521EE
:104540002046FFF753FFE88270BDFEB50546002404
:104550002030017E0291467E2868407C01902968C7
:1045600027460B7C696B5F43FF043F0CC919009120
:1045700028463246002100F03BF8641C761C029865
:10458000E4B2F6B2844202D201988642E7D3FEBD7D
:1045900070B5014620310A7E0C46D1000368818740
:1045A000197CC9004187647EE100C1875D7CA61843
:1045B000AE4201D92A1B92B24030D2000180891844
:1045C0004180998A8180D98AC18070BD10B5FFF77A
:1045D000DFFF10BD10B50146002240310A818A88F4
:1045E0004A810A888A814A88CA81FFF740FD10BD46
:1045F0007CB56C46069D6171A27123710095012204
:1046000084686B460F21A0477CBD30B484680023CA
:10461000A44630BC1A460A21604730B4846800239F
:10462000A44630BC1A461021604730B48468002389
:10463000A4460A4630BC0B216047F8B515460E4625
:104640000446069F00F008F86761A660E560204612
:10465000236100F013F8F8BD07498160C1600022B2
:1046600001610260416101462031CA708A71826134
:10467000FF200871087270470D4A000830B4846842
:104680000023A44630BC1A4609216047080001D027
:104690000A2800D100487047FFFF0000FFB504461C
:1046A000006883B0027B0125D207D20F0092AA1ABC
:1046B000019218294ED004DC14293AD0172904D1CC
:1046C00006E0192954D020293ED0002007B0F0BDC3
:1046D0001D462AE0401E2F78C0B200266D1C0590B2
:1046E000380601D5012200E000224121204600F0D9
:1046F000D1F97806070E40212046019A00F0CAF948
:1047000020682C218279204600F0C4F940212046FF
:10471000009A00F0BFF920682C21C279204600F0F1
:10472000B9F9761CF6B2082EDAD305980028D1D153
:104730001CE042784921204600F0ACF92068007B5B
:10474000C207D20F402101E0059A4A21204600F01D
:10475000A1F90BE002784921204600F09BF920687E
:104760000023827865692C212046A8470120ADE707
:10477000C278002365692C212046A847206849217A
:104780004278E3E713B50122046901AB1721A04782
:104790001CBD30B404690023A4460A4630BC202165
:1047A0006047FFB505460846143881B016460C46EA
:1047B0000300FEF787FE061304040F13131A0021EB
:1047C0002846FFF7E6FF31462846FFF7DBFF0120CA
:1047D00005B0F0BD01212846FFF7DBFF2F69324607
:1047E00021462846049BB847F2E70020F0E730B4A2
:1047F000C4680023A44630BC1A461921604730B46F
:10480000C4680023A4460A4630BC1621604730B471
:10481000C4680023A4460A4630BC1521604730B462
:10482000C4681346A4460A4630BC17216047F8B551
:104830000C4605462178641C182924D00EDC152965
:1048400019D0162917D0172923D120786946087066
:104850006A4601212846FFF7E2FF0AE0192912D033
:10486000FE2916D12278684602702921284600F0D8
:1048700011F9641CDEE7227868460270EE680023B6
:104880002846B047F5E70023EE681A462846B047A9
:10489000D0E7F8BD30B4C4680023A44630BC1A4643
:1048A0001821604770B50023456904461A4628213F
:1048B000A8470023E5681A4614212046A84701228C
:1048C0004B21204600F0E6F8206829210279204695
:1048D00000F0E0F800224B21204600F0DBF82068D1
:1048E00029210279204600F0D5F801224B212046EB
:1048F00000F0D0F8206829214279204600F0CAF85B
:1049000070BD0160897C20308170704770B50C46A5
:10491000054600F019F8002810D1092C0AD00A2CFD
:1049200000D070BD2846FFF7BDFF05492846FFF7B8
:104930007EFF03E003492846FFF7E3FF012070BD37
:10494000726B0008746C0008F8B51F4614460546E3
:104950000B2909D02E4620360D290ED00E291DD048
:104960000F2926D00020F8BD002A03D02649FFF7E2
:104970005EFF47E02449491FF9E7002A07D0224992
:104980000C31FFF754FF2868C07CB0703AE01E4934
:10499000491DFFF74CFF2868807CF6E7FFF77AFF98
:1049A00081212846FFF733FF21462846FFF727FFDE
:1049B00025E0FFF76FFF7879B178C0000818C6B21C
:1049C00040212846FFF723FF310928461031FFF721
:1049D0001EFF3107090F2846FFF711FFB979B020F4
:1049E00001432846FFF70BFF38793A68C006010EED
:1049F0002846FFF714FF641E2406240EF4D128462F
:104A0000FFF7F5FE0120F8BD516B0008002070474C
:104A100070B510461E4C0A4641290ED006DC282AE5
:104A200017D0292A18D0402930D10DE00125ED03F7
:104A3000492A14D04A2929D11FE00121890305E020
:104A4000012220E000221EE0012149030028F9D0C4
:104A5000F6E7FDF711FF0120FCF764FC16E00121E9
:104A60000903002804D001222046FCF720FD06E0BF
:104A700000222046FCF71BFD03E0002801D00122A4
:104A800000E0002229462046FCF711FD012070BD00
:104A90000004005030B444690023A44630BC604791
:104AA00000212030817170474368826801699A60F3
:104AB000836842685A604A68824201D182684A60CB
:104AC000002202610868401E0860086870470146BD
:104AD000083100224160D243C1608260016100213F
:104AE00001607047002101617047000072B6044800
:104AF0000168491C0160BFF34F8FBFF36F8F704790
:104B00006000002005490868002804D0401E0860A5
:104B100000D162B6704772B6FEE700006000002068
:104B200010B5002822D00446083C6068002801DB4C
:104B300072B6FEE72168002901D072B6FEE7400098
:104B40004008606000F05EF80948616800E01046C7
:104B5000026853688B42FAD322600460044861689B
:104B6000083802688918016000F050F910BD000093
:104B70006C00002010B5074C00202061A0610648A1
:104B80007D21C9000068FBF7EBFA401E6061072039
:104B9000206110BD00E000E08800002001200449F1
:104BA00000074860BFF34F8FBFF36F8F704700005F
:104BB00000ED00E07CB50F48002501902B468022D7
:104BC0000DA100950E4800F06FF80A4C2C3C01280E
:104BD00002D0401C0BD008E072B60020C043A06297
:104BE00001206061E56000F047F8206B7CBD72B683
:104BF000FEE700004C00002049444C450000000046
:104C0000713A00080248416B491C4163704700003B
:104C10002000002010B51348416B002902D001216B
:104C2000C16110BD0021C16101690F4A02E0002984
:104C300015D0491E14234B43D358002BF7D014230F
:104C40004B439A18536814465B6808345360A34278
:104C500001D15B685360DA680260016110BD72B611
:104C6000FEE70000200000200C080020FEF706FCF4
:104C7000FEF7ECF9FAE7000010B50948016AFF22D7
:104C8000120411430162016A120211430162FFF72B
:104C900071FF044900200860FBF718FA002010BDDE
:104CA00000ED00E060000020FFB585B016469000E2
:104CB0000F9FFEF75DFF05001DD05C20FEF758FF3B
:104CC000040015D05C21FBF7A0FA256300210E98A3
:104CD00003910197009002943246089B069905982B
:104CE000FEF7EAFE2046FEF74FFE012009B0F0BDB8
:104CF0002846FFF715FF0020C043F7E7F8B5414C01
:104D00000026606B002804D0A069401CA0613046DA
:104D1000F8BDE5686D1CE5600ED1A06B0068002849
:104D200001D072B6FEE7A06BE16BA163E063206A7D
:104D3000401C2062FEF702FFA06A334F85420AD36F
:104D4000A06B0068002813D0A06BC068C1684868D9
:104D5000854210D2A06220681421C06A48433858A6
:104D6000012800D90126E0690028D0D00126CEE72D
:104D70000020C043EEE78B684A69C8689860CB683A
:104D800088685860081D53688446634501D1CB6824
:104D9000536000234B6113685B1E13608A6A002A0C
:104DA00011D0C8690B6A83600B6AC86958600B46EA
:104DB00050681833984201D10B6A536000238B620C
:104DC00013685B1E1360CA6A23699A4200D9226184
:104DD00014235A43D01942688A609368CB60936861
:104DE000604658609060C86A14225043C2194A61F4
:104DF0003A58521C3A50C86A2168C96A88429FD9F9
:104E000001269DE7200000200C080020F8B53D4D4C
:104E10000024686B2646002808D0FFF767FE686B01
:104E2000401E6863686B002802D066E072B6FEE739
:104E3000A868354B002846D15FE0D868C468E269AD
:104E4000216AA06A9160226AE16951602146426844
:104E500018318A4201D1216A41600022A2620168B0
:104E6000491E0160A7686169E068B860E768A068EA
:104E700078604F68201D874201D1E7684F6062610A
:104E80000A68521E0A60E16A2A69914200D92961C2
:104E9000142251431C4AB43A89184968A1608F68AA
:104EA000E7608F6878608860E06A14214843811861
:104EB00061611158491C1150E06A2968C96A884229
:104EC00001D30120E86118680028B6D1002C01D078
:104ED000FEF734FEAC69002C09D00127FFF70EFF66
:104EE000002800D0EF61641EF8D10020A861E869B5
:104EF000002802D00126FFF751FEFFF703FE3046DF
:104F0000F8BD000020000020C008002000000000C4
:104F100000000800003A10000002000080010000BC
:104F20000020100090800000E80010000002000047
:104F300024182800000014000004100000001000D5
:104F400004001000080000001000080032000100FA
:104F5000CC010400001002000008010000E4000081
:104F600040500000001000006020380020D05300A6
:104F70000000400640061A020004030000EE000094
:104F80000000000000000000000000000000000021
:104F90000000000000000000000000000000000011
:104FA0000000000000000000000000000000000001
:104FB00000000000000000000000000000000000F1
:1052A00000700000008801000004010000043D00BF
:1052B0000004010000043D000004010000643D0002
:1052C00000643D000064010000643D0000640100D2
:1052D00000643D00006401000063060000FD0D0055
:1052E00080FE0B0080FE0B0080FE0B0080FD09009D
:1052F00000FB0400008E03000060000000000000BE
:10530000000000000000000000000000000000009D
:10531000000000000000000000000000000000008D
:10532000000000000000000000000000000000007D
:10533000000000000000000000000000000000006D
:1056200000000000000000000040000000600000DA
:1056300000F0000000F0010000F8030000FC07008B
:1056400000FE070000FE0F0000FF0F0000FF1F001C
:1056500080FF1F0080FF3F0080FF3F0080FF7B0036
:1056600080FFDB0000FFFA0000FE8E0100FCFE0060
:1056700000F09C0000003800000000000000000066
:10568000000000000000000000000000000000001A
:10569000000000000000000000000000000000000A
:1056A00000000000000000000000000000000000FA
:1056B00000000000000000000000000000000000EA
:1059900000000000000000000180FF1F0080FF3FAA
:1059A0000080FF3F0080FF3F0080FF3F0080FF3FFF
:1059B0000080FF3F0080FF3F0080FF3F0080FF3FEF
:1059C0000080FF3F0080FF3F0080FF3F0080FF3FDF
:1059D0000080FF3FFF7F0000FF7F0000FF7F00008F
:1059E000FF7F0000FF7F0000FF7F0000FF7F0000BF
:1059F000FF7F0000FF7F0000FF7F0000FF7F0000AF
:105A0000FF7F0000FF7F0000FF7F0000FF7F00207E
:105A10000000000000000000000000000000000086
:105A20000000000000000000000000000000000076
:105A30000000000000000000000000000000000066
:105A40000000000000000000000000000000000056
:105D1000000000000000000000000000536E616BF6
:105D2000652047616D650000000000000000000074
:105D3000000000000054656D706572747572650036
:105D40000000000000000000000000000000487596
:105D50006D696469747900000000000000000000B3
:105D600000000000000000437562650000000000B4
:105D70000000000000000000000000000000000023
:105D8000BF0203020304010204060A00FE07FE0725
:105D900000017602F9093C2007D6F8F92300210A10
:105DA000D6F891B43B985300220BD6F8932CC992A5
:105DB0009C37002310D6F8932C890629890629C917
:105DC000929C00240DD6F891704AC23189C69C027B
:105DD000250DD6F8A3A429092B51D29413260ED64B
:105DE000F8C3244BC24A53A6E430002709D6F891E1
:105DF000B4CE23002809D6F8A1B05AAE132909D68B
:105E0000F8E36AB14E022A0ED6F8D12C4AA2414AD2
:105E1000A22CA7022B0AD6F8F1341BB434672C0944
:105E2000D6F87913EB18002D09D6F8D9069D1B007A
:105E30002E09D6F8790BC71C022F0AD6F8B134EC1C
:105E40009AD3003010D6F8913089B2244BB2280989
:105E5000730A00310CD6F891504BD2B6418701320B
:105E60000CD6F8A72CCDB4301D7418330CD6B80757
:105E7000350CE5248B7602340DD6F8A1504BA2D216
:105E800020A63901350DD6B807254D24294DB26815
:105E900027360DD6F8112D4C13494AB26827370B17
:105EA000D6B807354CC36A4E02380DD6F8A72CC9B0
:105EB000A2294BB26827390DD6F8A72C892C6998EE
:105EC000E914003A0CD6F8F170CCC170CC21003B3B
:105ED0000BD6F8F170CC41B18E013C09D6F8B1B0C7
:105EE000B91D063D0AD6F889833EE88C003E09D6E6
:105EF000F8E3C67612003F0BD6F8A72CACE6604E4E
:105F000001400CD6F8A72C89942E52BC134110D610
:105F1000F8913089B2244B06254BB21C06420CD6B0
:105F2000B8872C6ADAA2962127430BD6F8A72C490A
:105F3000DBA29D00440BD6B8872CEA5F869C004507
:105F40000DD6B807254D87284D071D06460CD6B837
:105F500007254D8728ADD300470CD6F8A72C494B11
:105F60004A16ED044810D6B8B3244BB26450B2249C
:105F70004BB21C064908D6F8C7B4E34E4A0BD6F814
:105F800091316DAAE914004B0ED6B8B324AA64620D
:105F90009245B51C064C09D6B8D35E071D064D0EBA
:105FA000D6B8B3244B2CDD922CC972184E0FD6B83C
:105FB000B3244BA4A4939225590E034F0ED6F8A7F1
:105FC0002CC9922CC9922CDA09500DD6B887284BCF
:105FD000B26488D23A0D510ED6F8A72CC9922CC9BA
:105FE00092A639075210D6B887284BB26488922CF3
:105FF000AAE53000530CD6F8A72C89E7248B76024B
:106000005409D6B8072DED9D02550FD6B8B3244BD1
:10601000B2244BB2248B76025610D6B8B3244BB2BE
:1060200028C9922C09730A00570ED6B8B3244BB274
:10603000A42F962C8701580FD6B8B3248B92B01298
:10604000654996C300590CD6B8B3248B92306DA71E
:10605000005A0BD6B80735EC3AE830005B08D6F8A2
:10606000B7B4EB4E5C09D6B8D3B86B0E035D08D657
:10607000F8D7DE76025E0BD6F8913089B29C270005
:106080005F08D6F8F93CE8006008D6B8E29C5F00EB
:10609000610DD6F8A97334245934E43000620DD66A
:1060A000B8D38A2425592225894E630BD6F8A953E3
:1060B00096A459B413640ED6F8B134524A4A9644A1
:1060C000961C06650BD6F8A953960C4ABC13660CB1
:1060D000D6F8112D2A0E595A2701670FD6F8A94371
:1060E00092255934A449164D00680ED6B8D38A2497
:1060F00025599225590E03690AD6F8911C531B772E
:10610000026A0BD6F8B11C539BBA49006B0DD6B886
:10611000D35A12455B54CB61006C08D6F8D51E7774
:10612000026D0BD6F8894A94F46F390C6E0ED6F8CE
:1061300089892425599225590E036F0CD6F8A95345
:1061400096644916ED04700FD6F8898924255922E2
:10615000258994A600710DD6F8A94A49C992C8921A
:106160005600720BD6F889892425699D06730AD6D4
:10617000F8A9533C27434E740BD6F8D370C8D252BB
:10618000A613750DD6F889599225591259721876A9
:106190000DD6F8895992454996843905770CD6F879
:1061A000895992257D4A7202780DD6F889599484CE
:1061B0009528CB6100790ED6F88959922591254D05
:1061C000B268027A0BD6F88983D838E830007B0CA5
:1061D000D6F8212DCEE430D661007C09D6F891B4F2
:1061E000EF14007D0BD6F8E530D6E24CA7007E0A0E
:1061F000D6F8A3A453CE1B00A007D6F8F92300A11C
:106200000AD6F8911C4CBB5300A20FD6F8F1704887
:106210006A49968443964300A30DD6F8112D2A8E21
:106220006994243A01A40DD6F88959B425D994E586
:106230003000A50ED6B8B3248B92301BB4B40E0137
:10624000A60BD6F891B40EA6750A00A70DD6F8A72E
:10625000748BB2285BA31D01A807D678EAFC01A9BC
:106260000CD6F8A72C6991926ED14EAA0DD6F89152
:10627000A9454B7264C8A900AB0ED6F8C9511225C6
:10628000511665518E02AC09D6F81987346704ADF2
:1062900009D6F819879C1B00AE0ED6F8A72C591208
:1062A0002991922CDA09AF08D638069D9F01B00AD1
:1062B000D6F8913009731E01B10CD6F8F1341BB435
:1062C000341B7418B20BD6B8B4282C0E393700B36F
:1062D0000AD678E64C8E768E00B408D6F8C29C9F1B
:1062E00000B50FD6F8895992255922258994830043
:1062F000B610D6F88764499648C9922CC9921C06F4
:10630000B708D6F85973AE00B808D6F8F929CC000A
:10631000B909D6B842B5B87304BA0CD6F8112D6ACB
:10632000D3A121A702BB0DD6F889511665511225BC
:10633000514EBC0DD67842B538855A120D690CBD48
:106340000DD67842B5B884491A863300BE0ED638C9
:10635000E430CEA4504BA221CD01BF0BD6F8911C46
:106360004CC35AB413C00FD678E270CA922C199459
:106370002CC97218C10FD6F8C270CA922C19942C6D
:10638000C97218C210D6B8C2249BB2244B06254B42
:10639000B21C06C311D678A224D1A62CC99241C939
:1063A000922C8701C410D678EAD094255932285906
:1063B00092E53000C510D6B8C2249BB2244B062506
:1063C0004BB21C06C60ED6F8912129350D43D4B424
:1063D000A300C70BD6F8A72C49DBA2B108C80ED67C
:1063E00078C24149D3214AD3418701C90ED6F8A2C8
:1063F0004149D3214AD3418701CA0ED6B8B2414997
:10640000D3214AD3418701CB0ED6784A8392A64343
:1064100094A6830E03CC0AD678E2704C1B7702CD8B
:106420000AD6F8C2704C1B7702CE0BD6B8C2241B1A
:10643000D3C69D00CF0AD678EAD09836EE04D00CA9
:10644000D6B8872C6A59A22E434ED111D6B89228BD
:1064500089B2444A3A295992E53000D20ED678E200
:1064600070CA922CC9922CDA09D30ED6F8C270CA1F
:10647000922CC9922CDA09D40FD6B8C2249BB2242C
:106480004BB2248B7602D510D6B89228C9A62CC957
:10649000922CC9A29D00D60ED678EAD094255992A6
:1064A0002559B413D70DD6F8895994849528CB6112
:1064B00000D80ED6F8A7488994162991A29D00D934
:1064C0000ED678E2AC922559922559B413DA0ED63D
:1064D000F8C2AC922559922559B413DB0FD6B8C235
:1064E0002447B2244BB2248B7602DC0FD678EA48DC
:1064F00096644996644916ED04DD0DD6F8C2AC9257
:10650000454998D62900DE0DD6B8D321CA92214A32
:10651000EB3400DF0ED6F8A72C892A59544B129D74
:1065200000E00ED678E21C9BA321C9A2218701E1DD
:106530000ED6F8C21C9BA321C9A2218701E20FD667
:10654000B8C22487E66848B268C86100E30FD6B8CD
:106550009228C9A1391A922C1A7218E40ED6F8930F
:106560001C9AA321C9A2218701E50FD6B8C2240C29
:10657000E76848B268C86100E60DD6F8A9439824D8
:10658000C3940D3A0AE70CD6F8A95396A4593416C9
:1065900001E80DD678E21C9BB26450E29D00E90D43
:1065A000D6F8C21C9BB26450E29D00EA0DD6B8C278
:1065B0002487A62C19947827EB0DD6F8931C9AB251
:1065C0006450E29D00EC0AD678E21C531B7702ED82
:1065D0000AD6B8C21C541B7702EE0BD6B8C2248769
:1065E000D4C69D00EF0AD6F8931C521B7702F00C1C
:1065F000D6B86D5396644916ED04F111D6B89228B9
:10660000C9914492922CC9922C8701F20DD678E25E
:106610001C9BB2244BB26827F30DD6F8C21C9BB268
:10662000244BB26827F40ED6B8C22487A62CC99290
